:1000000032C041C040C03FC03EC03DC03CC03BC00C
:100010003AC039C038C08BC036C035C034C033C0D8
:1000200032C031C030C04541542041204449434B87
:100030000A000A00436F6D6D616E6420526563654E
:10004000697665643A2000216275666665725F664E
:10005000756C6C0A00216672616D696E675F65720E
:10006000726F720A000011241FBECFE5D4E0DEBF1C
:10007000CDBF10E0A0E6B0E001C01D92A138B107ED
:10008000E1F72AD0D9C0BCCF10BC8CE089B9599A0D
:100090008AB188698AB90895FC0184919DE00AC0FB
:1000A0008A3019F45D9BFECF9CB95D9BFECF8CB965
:1000B000319684918823A1F7089587B38FEF87BB8A
:1000C00080E091E09BBD8ABD18BA8FB583688FBD73
:1000D0008EB582608EBD0895F0DFD6DF789486E21B
:1000E00090E0DADFFFCF0F931F93182F092F84E3DF
:1000F00090E0D2DF812F902F9C01F9019DE009C093
:100100008A3019F45D9BFECF9CB95D9BFECF319682
:100110008CB980818823A1F782E390E0BDDF812F35
:10012000902F4FD07BBD6ABD1F910F9108951F92F4
:100130000F920FB60F9211241F932F933F934F935B
:100140005F936F937F938F939F93AF93BF93EF933F
:10015000FF935C9B06C01092800085E590E09CDFD9
:100160001EC01CB1809180001D3059F4E82FF0E0D2
:10017000E05AFF4F10821092800080E690E0B3DFDB
:100180000EC08F5F80938000803218F087E490E08B
:1001900083DFE0918000F0E0E15AFF4F1083FF9190
:1001A000EF91BF91AF919F918F917F916F915F91EF
:1001B0004F913F912F911F910F900FBE0F901F9065
:1001C00018951F93FC0199278827BC01E894119189
:1001D0001032E9F3193010F01E30C8F31B3249F029
:1001E0001D3241F4689405C012D0610F711D811D4C
:1001F000911D119110531A30B8F33EF490958095EB
:10020000709561957F4F8F4F9F4F1F910895592F84
:10021000482F372F262F660F771F881F991F660FCD
:10022000771F881F991F620F731F841F951F660F0A
:0C023000771F881F991F0895F894FFCFD6
:00000001FF
