:1000000012C02CC02BC02AC029C028C027C0EFC0F6
:1000100025C024C023C022C021C020C01FC01EC0D4
:100020001DC01CC01BC011241FBECFE5D4E0DEBF25
:10003000CDBF10E0A0E6B0E0E8EBF3E002C0059031
:100040000D92AC36B107D9F710E0ACE6B0E001C0D4
:100050001D92AA38B107E1F757D1ACC1D1CF87B310
:100060008FEF87BB8EEF9FE09BBD8ABD8DE993E04C
:1000700099BD88BD18BA89B7886089BF8FB5836874
:100080008FBD8EB588608EBD8EB581608EBD0895A2
:100090009B01AC018091820090918300A09184002B
:1000A000B09185000196A11DB11D809382009093AF
:1000B0008300A0938400B09385004297A105B10509
:1000C0004CF18091860090918700A0918800B091BA
:1000D0008900820F931FA41FB51F80938600909301
:1000E0008700A0938800B093890081509040A14080
:1000F000B04044F010928600109287001092880061
:100100001092890010928200109283001092840055
:100110001092850080917E0090917F00A0918000D8
:10012000B09181000196A11DB11D80937E00909336
:100130007F00A0938000B09381008497A105B10552
:10014000DCF08091640090916500A0916600B09110
:1001500067000196A11DB11D809364009093650016
:10016000A0936600B093670010927E0010927F000B
:10017000109280001092810080917A0090917B0013
:10018000A0917C00B0917D000196A11DB11D8093CE
:100190007A0090937B00A0937C00B0937D00C5977C
:1001A000A105B105DCF08091680090916900A091F3
:1001B0006A00B0916B000196A11DB11D809368008B
:1001C00090936900A0936A00B0936B0010927A003C
:1001D00010927B0010927C0010927D00609186004E
:1001E00070918700809188009091890008951F92F6
:1001F0000F920FB60F9211240F931F932F933F93DB
:100200004F935F936F937F938F939F93AF93BF931E
:10021000CF93DF93EF93FF9318BAC0917800D091FA
:100220007900C130D10539F0C230D10531F02097C5
:1002300029F4C39A03C0C49A01C0C59A8E01000F65
:10024000111F000F111FF801E459FF4F80819181A8
:100250009BBD8ABD61E070E080E090E019DF9B010A
:10026000AC01005A1F4FF801608171818281938136
:10027000620F731F841F951F28EC3AE040E050E0A6
:100280005CD064567540804090409B0177FF03C06E
:10029000309521953F4F2C5C3140C901AA2797FD2D
:1002A000A095BA2FFE01EE0FFF1FEE0FFF1FE459BE
:1002B000FF4F80839183A283B383B7FF04C0108272
:1002C000118212821382CE0101969093790080935D
:1002D0007800039724F01092790010927800FF9133
:1002E000EF91DF91CF91BF91AF919F918F917F91CE
:1002F0006F915F914F913F912F911F910F910F90AF
:100300000FBE0F901F9018957894A9DE20E137E278
:1003100049E150E005C0CA010197F1F72150304092
:1003200021153105C1F780E197E2FA013197F1F724
:100330000197D9F720E137E2EECF97FB092E05268A
:100340000ED057FD04D014D00AD0001C38F45095BC
:100350004095309521953F4F4F4F5F4F0895F6F7E9
:1003600090958095709561957F4F8F4F9F4F089521
:10037000A1E21A2EAA1BBB1BFD010DC0AA1FBB1FA9
:10038000EE1FFF1FA217B307E407F50720F0A21B1B
:10039000B30BE40BF50B661F771F881F991F1A9488
:1003A00069F760957095809590959B01AC01BD01B2
:0803B000CF010895F894FFCF7E
:0C03B80000000000980300003007000067
:00000001FF
