:1000000012C02CC02BC02AC029C028C0D7C026C00F
:1000100025C024C023C022C021C020C01FC01EC0D4
:100020001DC01CC01BC011241FBECFE5D4E0DEBF25
:10003000CDBF10E0A0E6B0E0EAE5F3E002C0059035
:100040000D92A636B107D9F710E0A6E6B0E001C0E0
:100050001D92AD36B107E1F72BD17EC1D1CFCF9341
:10006000DF93CDB7DEB7E7E3F0E08FE08083AEE467
:10007000B0E0EEE4F0E0808183608C93AEE4B0E029
:10008000EEE4F0E0808188608C931092670010921B
:100090006600109269001092680088EC90E09093DE
:1000A0006B0080936A0081E080936C00EAE4F0E0EA
:1000B00080916A0090916B0091838083A8E3B0E007
:1000C00080916C00882F90E0FC01E05AFF4F808106
:1000D00080958C93DF91CF910895CF93DF93CDB727
:1000E000DEB722970FB6F894DEBF0FBECDBF9A835E
:1000F000898389819A819093690080936800A8E53B
:10010000B0E0E8E5F0E0808180618C93E9E5F0E023
:1001100080E1808322960FB6F894DEBF0FBECDBF7C
:10012000DF91CF910895CF93DF93CDB7DEB72297BC
:100130000FB6F894DEBF0FBECDBF9A83898320919E
:1001400068003091690089819A81820F931F909392
:10015000690080936800A8E5B0E0E8E5F0E0808100
:1001600080618C93E9E5F0E080E1808322960FB610
:10017000F894DEBF0FBECDBFDF91CF910895CF932E
:10018000DF93CDB7DEB722970FB6F894DEBF0FBE70
:10019000CDBF9A838983ECE4F0E0118210828981DB
:1001A0009A8190936B0080936A0022960FB6F89420
:1001B000DEBF0FBECDBFDF91CF91089578941F921F
:1001C0000F920FB60F9211242F933F938F939F930B
:1001D000AF93BF93EF93FF93CF93DF93CDB7DEB78A
:1001E000EAE4F0E080916A0090916B009183808353
:1001F00020916600309167008091680090916900BD
:100200002817390721F4E9E5F0E0108242C0209177
:1002100068003091690080916600909167008217B4
:100220009307B4F480916C008F5F80936C00809191
:100230006C00853018F081E080936C00809166003E
:10024000909167000196909367008093660015C0B7
:1002500080916C00815080936C0080916C008823A9
:1002600019F484E080936C0080916600909167009F
:1002700001979093670080936600A8E3B0E08091B7
:100280006C00882F90E0FC01E05AFF4F8081809540
:100290008C93DF91CF91FF91EF91BF91AF919F919F
:1002A0008F913F912F910F900FBE0F901F90189537
:1002B000CF93DF93CDB7DEB788E10FB6F89481BD59
:1002C00011BC0FBECCDE789488E290E058DF80E667
:1002D00090E029DF81E090E00AD084EF91E04FDFE9
:1002E00080EA9FEF20DF84E090E001D0EDCFCF9354
:1002F000DF93CDB7DEB726970FB6F894DEBF0FBEFB
:10030000CDBF9E838D832D813E81C901880F991FAA
:10031000820F931F9E838D831C821B820DC01A82C5
:10032000198289819A810197F1F79A8389838B8158
:100330009C8101969C838B832B813C818D819E8146
:100340008217930760F726960FB6F894DEBF0FBEAC
:0A035000CDBFDF91CF910895FFCFDC
:06035A000003060C09007F
:00000001FF
