:1000000012C02CC02BC082C05CC028C027C026C034
:1000100025C024C023C022C021C020C01FC01EC0D4
:100020001DC01CC01BC011241FBECFE5D4E0DEBF25
:10003000CDBF10E0A0E6B0E0E0EEF3E002C0059036
:100040000D92A436B107D9F710E0A4E6B0E001C0E4
:100050001D92A736B107E1F792D0C1C1D1CFA59AC1
:1000600085B5806485BD80EF83BD89B7806C89BF0D
:1000700085B5856085BD0895209165003091660045
:10008000882361F4232BE1F480916400813021F412
:10009000AD9A109264000895AD9808952115310528
:1000A00019F481E080936400C90101969093660081
:1000B00080936500049720F010926600109265000E
:1000C00008951F920F920FB60F9211242F933F9312
:1000D0004F935F936F937F938F939F93AF93BF9350
:1000E000EF93FF9381E090E0C7DFFF91EF91BF9125
:1000F000AF919F918F917F916F915F914F913F91C0
:100100002F910F900FBE0F901F9018951F920F9276
:100110000FB60F9211242F933F934F935F936F93DA
:100120007F938F939F93AF93BF93EF93FF9380E061
:1001300090E0A2DFFF91EF91BF91AF919F918F91DE
:100140007F916F915F914F913F912F910F900FBED3
:100150000F901F901895EF92FF920F931F937C01C1
:100160008B0174D00E191F090F5F1F4FB8017DD08E
:100170008E0D9F1D1F910F91FF90EF9008956FDFDF
:10018000789463E070E080E090E0E5DF892B11F087
:1001900082ED01C08FEA83BD24EF31E080E991E078
:1001A0000197F1F721503040C9F7EBCFA0E0B0E064
:1001B000EBEDF0E0C3C0EC01688179818A819B811D
:1001C000611571058105910549F484E2A82E89ED38
:1001D000B82E8BE5C82E87E0D82E02C05B016C01DB
:1001E000C601B5012DE133EF41E050E084D027EAAC
:1001F00031E440E050E060D07B018C01C601B501E4
:100200002DE133EF41E050E076D0CA01B90124E19D
:100210003BE040E050E050D0E61AF70A080B190B1B
:1002200017FF08C08FEF9FEFAFEFBFE7E80EF91E93
:100230000A1F1B1FE882F9820A831B83C7019F776D
:10024000EAE0CDB7DEB796C0B1DF089580E690E072
:10025000ADDF0895A0E0B0E080936000909361006E
:10026000A0936200B0936300089597FB092E0726C0
:100270000AD077FD04D00CD006D000201AF4709577
:1002800061957F4F0895F6F7909581959F4F08955A
:10029000AA1BBB1B51E107C0AA1FBB1FA617B707AC
:1002A00010F0A61BB70B881F991F5A95A9F78095C8
:1002B0009095BC01CD010895629FD001739FF0011C
:1002C000829FE00DF11D649FE00DF11D929FF00DE6
:1002D000839FF00D749FF00D659FF00D9927729F1D
:1002E000B00DE11DF91F639FB00DE11DF91FBD01A8
:1002F000CF011124089597FB092E05260ED057FD36
:1003000004D04BD00AD0001C38F45095409530955D
:1003100021953F4F4F4F5F4F0895F6F79095809589
:10032000709561957F4F8F4F9F4F08952F923F9209
:100330004F925F926F927F928F929F92AF92BF92F5
:10034000CF92DF92EF92FF920F931F93CF93DF93A1
:10035000CDB7DEB7CA1BDB0B0FB6F894DEBF0FBEFE
:10036000CDBF09942A88398848885F846E847D844B
:100370008C849B84AA84B984C884DF80EE80FD804D
:100380000C811B81AA81B981CE0FD11D0FB6F894C3
:10039000DEBF0FBECDBFED010895A1E21A2EAA1B4C
:1003A000BB1BFD010DC0AA1FBB1FEE1FFF1FA21725
:1003B000B307E407F50720F0A21BB30BE40BF50B22
:1003C000661F771F881F991F1A9469F760957095AB
:1003D000809590959B01AC01BD01CF010895FFCFA1
:0403E0000100000018
:00000001FF
