:1000000012C019C018C017C016C015C014C013C044
:1000100012C011C010C00FC00EC00DC00CC00BC06C
:100020000AC009C008C011241FBECFE5D4E0DEBF5E
:10003000CDBF2BD033C0E4CFC09A8CE39FE029E141
:1000400030E0F9013197F1F70197D9F720E030E07E
:1000500064EC79E0E2E04CED55E018BACB01019791
:10006000F1F7E8BBCA010197F1F72F5F3F4F2B3043
:10007000310599F7C09880E29EE429E130E0F9016A
:100080003197F1F70197D9F708958FEF87BB14BA2D
:100090008EEF85BB989BFECFCFDFFCCFF894FFCFD0
:00000001FF
