:100000002BC045C044C043C042C041C07EC13FC0B8
:100010003EC03DC03CC0DEC03AC039C038C037C069
:1000200036C035C034C0216275666665725F66751C
:100030006C6C0A00216672616D696E675F65727231
:100040006F720A004C414141414141414141470ADF
:10005000000A005243563A0011241FBECFE5D4E0F7
:10006000DEBFCDBF11E0A0E6B0E0EAEEF7E102C0EE
:1000700005900D92A432B107D9F711E0A4E2B1E0E6
:1000800001C01D92AC34B107E1F784D4ADCBB8CF39
:10009000CF93DF93CDB7DEB7E0E4F0E01082E9E282
:1000A000F0E089E18083ABE2B0E0EBE2F0E0808158
:1000B0008D7F8C93AAE2B0E0EAE2F0E0808188696B
:1000C0008C93DF91CF910895CF93DF93CDB7DEB7B7
:1000D00021970FB6F894DEBF0FBECDBF8983EBE248
:1000E000F0E08081882F90E0807290700097B9F3E3
:1000F000ECE2F0E08981808321960FB6F894DEBFB0
:100100000FBECDBFDF91CF910895CF93DF93CDB7D1
:10011000DEB722970FB6F894DEBF0FBECDBF9A832D
:10012000898311C0E981FA8180818A3011F48DE0E0
:10013000CBDFE981FA81208189819A8101969A83B6
:100140008983822FC1DFE981FA818081882351F779
:1001500022960FB6F894DEBF0FBECDBFDF91CF91D0
:100160000895CF93DF93CDB7DEB729970FB6F894F4
:10017000DEBF0FBECDBF99878887888599859E830E
:100180008D83ED81FE8184918C838C818F8316C059
:100190008F818A3011F48DE097DF8F8195DF88851C
:1001A0009985019699878887888599859B838A8315
:1001B000EA81FB818491898389818F838F81882360
:1001C00039F729960FB6F894DEBF0FBECDBFDF9189
:1001D000CF9108951F920F920FB60F9211242F9373
:1001E0003F934F935F936F937F938F939F93AF93BF
:1001F000BF93EF93FF93CF93DF93CDB7DEB72197F4
:10020000DEBFCDBFEBE2F0E08081882F90E080710F
:100210009070009731F010924B0184E390E0A1DFE1
:100220002BC0ECE2F0E08081898389818D3071F40C
:1002300080914B01882F90E0FC01E55DFE4F10821C
:1002400010924B018BE291E0BDD316C080914B011F
:100250008F5F80934B0180914B01803218F086E2D2
:1002600090E07FDF80914B01882F90E001972981FA
:10027000FC01E55DFE4F20832196F894DEBFCDBFE3
:10028000DF91CF91FF91EF91BF91AF919F918F91AE
:100290007F916F915F914F913F912F910F900FBE82
:1002A0000F901F901895CF93DF93CDB7DEB7E7E39C
:1002B000F0E08081E7E3F0E08FEF8083EAE4F0E0B4
:1002C00011821082E8E4F0E011821082A8E3B0E02D
:1002D000E8E3F0E0808189608C93A9E5B0E0E9E58E
:1002E000F0E0808180618C93AFE4B0E0EFE4F0E077
:1002F0008081816A8C93AEE4B0E0EEE4F0E080812E
:1003000081608C93DF91CF9108951F920F920FB669
:100310000F9211242F933F934F935F936F937F938B
:100320008F939F93AF93BF93EF93FF93CF93DF93FD
:10033000CDB7DEB781E090E013D0DF91CF91FF9190
:10034000EF91BF91AF919F918F917F916F915F914D
:100350004F913F912F910F900FBE0F901F901895C6
:10036000CF93DF93CDB7DEB722970FB6F894DEBFF9
:100370000FBECDBF9A83898389819A81009749F402
:10038000109224011092250110922601109227014B
:1003900045C08091240190912501A0912601B09142
:1003A00027018F3F2FEF92072FEFA2072FEFB20702
:1003B000A9F18091240190912501A0912601B0918D
:1003C00027010196A11DB11D809324019093250161
:1003D000A0932601B09327018091240190912501DB
:1003E000A0912601B0912701813024EF920721E0EE
:1003F000A20720E0B20790F080E090E0F3D08FEF0A
:100400009FEFAFEFBFEF8093240190932501A0935E
:100410002601B093270184E490E0A3DE22960FB674
:10042000F894DEBF0FBECDBFDF91CF910895CF937B
:10043000DF93CDB7DEB722970FB6F894DEBF0FBEBD
:10044000CDBF9A83898389819A81009761F08091D9
:1004500028019091290129813A81820F931F90935D
:1004600029018093280180912801909129012296E9
:100470000FB6F894DEBF0FBECDBFDF91CF910895C8
:10048000CF93DF93CDB7DEB722970FB6F894DEBFD8
:100490000FBECDBF89836A83E8E3F0E08081282F17
:1004A00030E08981992787FD9095282339238A8117
:1004B000992787FD909582239323009749F4A8E319
:1004C000B0E0E8E3F0E08081982F898189278C9360
:1004D00022960FB6F894DEBF0FBECDBFDF91CF914D
:1004E00008950F931F93CF93DF93CDB7DEB7269771
:1004F0000FB6F894DEBF0FBECDBF89836A838981B2
:10050000992787FD909588729070009749F0EAE4EA
:10051000F0E08A81992787FD9095918380831EC0A2
:1005200028E430E03E832D838A81882379F08A8114
:10053000082F112707FD109580E090E078DFF80183
:10054000E81BF90BCF019C838B8302C01C821B82AA
:100550002B813C81ED81FE813183208326960FB66D
:10056000F894DEBF0FBECDBFDF91CF911F910F91E9
:100570000895CF93DF93CDB7DEB721970FB6F894E8
:10058000DEBF0FBECDBF89838981882371F0A8E3C8
:10059000B0E0E8E3F0E0808189638C936FEF88E25C
:1005A000A0DF6FEF81E19DDF14C0A8E3B0E0E8E3D6
:1005B000F0E08081867C8C93A8E3B0E0E8E3F0E093
:1005C000808189608C9360E088E28BDF60E081E16C
:1005D00088DF21960FB6F894DEBF0FBECDBFDF9146
:1005E000CF910895CF93DF93CDB7DEB761970FB664
:1005F000F894DEBF0FBECDBF8F8780912A0188237C
:1006000009F4A6C08F85992787FD90958C7090700E
:10061000009789F08F85992787FD90959C012C7014
:10062000307080912A01992787FD90958C70907089
:1006300028173907D9F48F85992787FD90958370FE
:100640009070009709F484C08F85992787FD909555
:100650009C012370307080912A01992787FD909525
:10066000837090702817390709F472C081E081DF28
:1006700080E090E0AAE7B3E48B879C87AD87BE87D4
:1006800020E030E04AE755E46B857C858D859E85CA
:1006900006D4DC01CB018F839887A987BA8720E035
:1006A00030E040E85FE36F81788589859A8553D58E
:1006B00088230CF005C081E090E09E838D833CC0D0
:1006C00020E03FEF4FE757E46F81788589859A8571
:1006D000E0D418160CF027C020E030E040E251E4EE
:1006E0006B857C858D859E85DAD3DC01CB01BC01D1
:1006F000CD011DD2DC01CB019E838D830FC080E92B
:1007000091E09C838B838B819C810197F1F79C8383
:100710008B838D819E8101979E838D838D819E81A8
:10072000009769F713C06F81788589859A85FFD115
:10073000DC01CB019E838D838D819E819A83898389
:1007400089819A810197F1F79A83898380E011DF8B
:100750008F85282F332727FD3095398B288B888963
:1007600099898531910509F4A7C0288939892631ED
:1007700031051CF5888999898630910509F441C0B5
:10078000288939892730310564F488899989009747
:1007900009F4B9C0288939892530310509F47FC0A9
:1007A000B8C08889998989309105C1F1288939892A
:1007B0002A30310509F43FC0ACC0888999898A3252
:1007C000910509F452C0288939892B32310564F426
:1007D000888999898A319105D9F128893989253201
:1007E000310509F476C095C08889998985339105CA
:1007F00009F47CC0288939892A33310509F442C0BB
:1008000088C06FEA88E26DDE6FEA81E16ADE60E24D
:1008100088E236DE61E081E133DE7BC06FEA88E2A8
:1008200060DE6FEA81E15DDE68E088E229DE60E19A
:1008300081E126DE6EC06FEA88E253DE6FEA81E175
:1008400050DE68E088E21CDE61E081E119DE61C013
:100850006FEF88E246DE6FEF81E143DE68E088E219
:100860000FDE61E081E10CDE54C06BE488E239DE2A
:100870006FEF81E136DE68E088E202DE61E081E16F
:10088000FFDD47C06FEF88E22CDE6BE481E129DEFB
:1008900068E088E2F5DD61E081E1F2DD3AC06FEA0F
:1008A00088E21FDE6FEA81E11CDE60E288E2E8DDBB
:1008B00060E181E1E5DD2DC06FEF88E212DE6FEFD0
:1008C00081E10FDE60E288E2DBDD60E181E1D8DD1D
:1008D00020C06FEA88E205DE6FEF81E102DE60E2B0
:1008E00088E2CEDD60E181E1CBDD13C06FEF88E20D
:1008F000F8DD6FEA81E1F5DD60E288E2C1DD60E10B
:1009000081E1BEDD06C060E088E2EBDD60E081E110
:10091000E8DD8F8580932A0161960FB6F894DEBFDB
:100920000FBECDBFDF91CF910895CF93DF93CDB7A9
:10093000DEB726970FB6F894DEBF0FBECDBF9C83FF
:100940008B837E836D837ED69A8389832D813E81BE
:100950008B819C81A901481B590BCA019C012F5F07
:100960003F4F89819A81B90185D69A8389832981EC
:100970003A818B819C81820F931F9A83898389811D
:100980009A8126960FB6F894DEBF0FBECDBFDF91D9
:10099000CF910895CF93DF93CDB7DEB784DC78DBBA
:1009A0007894A5E5B0E0E5E5F0E0808180688C937F
:1009B0008895A5E5B0E0E5E5F0E090818FE7892333
:1009C0008C93EFCFCF93DF93CDB7DEB723970FB6DE
:1009D000F894DEBF0FBECDBF9B838A8380E090E09A
:1009E000BFDC8FEF898380E690E02A813B81BC01E8
:1009F000C90137D6009711F486E0898380E790E03B
:100A00002A813B81BC01C9012CD6009711F489E0F1
:100A1000898381E890E02A813B81BC01C90121D60C
:100A2000009711F48AE089838EE890E02A813B8167
:100A3000BC01C90116D6009711F48AE189838BE9BC
:100A400090E02A813B81BC01C9010BD6009711F4CB
:100A50008AE2898388EA90E02A813B81BC01C9014E
:100A600000D6009711F48AE3898386EB90E02A810F
:100A70003B81BC01C901F5D5009711F485E089835C
:100A800083EC90E02A813B81BC01C901EAD5009743
:100A900011F485E1898380ED90E02A813B81BC01DE
:100AA000C901DFD5009711F485E289838DED90E0CF
:100AB0002A813B81BC01C901D4D5009711F485E39B
:100AC00089838BEE90E02A813B81BC01C901C9D5A5
:100AD000009709F4198288EF90E02A813B81BC01DC
:100AE000C901BFD5009719F481E090E0A0DC87E050
:100AF00091E02A813B81BC01C901B3D5009719F46B
:100B00008FEF9FEF94DC89816DDD83E590E029DB39
:100B10008A819B81FADA81E590E023DB23960FB688
:100B2000F894DEBF0FBECDBFDF91CF910895EF9255
:100B3000FF920F931F937B018C0120E030E040E097
:100B40005FE4D8D288236CF020E030E040E05FE43E
:100B5000C801B70152D130D36050704080409048F6
:100B600003C0C801B70128D31F910F91FF90EF90E8
:100B70000895A0E0B0E0EEEBF5E0A5C52C015B0127
:100B8000FA01DC019C91923008F432C1EB018881BA
:100B9000823008F42CC1943071F4843009F028C1FB
:100BA000F20191818981981709F422C117E1412E40
:100BB00011E0512E1DC1843009F419C18230A9F40D
:100BC000923009F015C1CA01A20128E0DA010D90A6
:100BD000AD01EC010992CE012150C1F7E5018981F7
:100BE000E20199818923818300C1923009F4FFC019
:100BF000E201CA80DB80EB018A819B81E2012C81CA
:100C00003D814E815F81EB01EC80FD800E811F8173
:100C1000B601681B790BDB0177FF03C07095619506
:100C20007F4F603271050CF05DC01A161B065CF533
:100C300066247724430181E090E0A0E0B0E0062E36
:100C400004C0880F991FAA1FBB1F0A94D2F70197EF
:100C5000A109B1098E219F21A023B1230097A105ED
:100C6000B10529F0B1E06B2E712C812C912C04C0C0
:100C700016950795F794E7946A95D2F7E628F72832
:100C8000082919293BC0AB2BC9F1C60ED71E662413
:100C90007724430181E090E0A0E0B0E0062E04C09C
:100CA000880F991FAA1FBB1F0A94D2F70197A109A9
:100CB000B10982239323A423B5230097A105B1058D
:100CC00029F0A1E06A2E712C812C912C04C056953C
:100CD0004795379527956A95D2F7262937294829C8
:100CE00059290CC08C159D0534F06C0120E030E0D2
:100CF00040E050E003C0EE24FF248701E201998127
:100D0000E5018981981709F443C0992339F0E21A63
:100D1000F30A040B150BA801970104C02E193F0913
:100D2000400B510B57FD08C01182D382C28224832D
:100D30003583468357831DC081E08183D382C2827D
:100D400088279927DC01821B930BA40BB50B8483A6
:100D50009583A683B7830DC0220F331F441F551FF1
:100D600024833583468357838281938101979383BC
:100D700082832481358146815781DA01C901019737
:100D8000A109B1098F5F9F4FAF4FBF4328F30BC03D
:100D90009183D382C2822E0D3F1D401F511F248399
:100DA00035834683578383E0808324813581468160
:100DB00057815523D4F4C901AA2797FDA095BA2FCE
:100DC00081709070A070B0705695479537952795B3
:100DD000822B932BA42BB52B84839583A683B78377
:100DE000828193810196938382832F0101C0250123
:100DF000C201E0E1CDB7DEB782C4A0E2B0E0E2E03C
:100E0000F7E06BC469837A838B839C832D833E8355
:100E10004F83588709E0E02EF12CEC0EFD1EB70140
:100E2000CE010196F9D28E010F5E1F4FB801CE019F
:100E30000596F2D28A8991E089278A8BAE01475EB6
:100E40005F4FB801C70195DE07D2E6E0A09661C406
:100E5000A0E2B0E0EDE2F7E040C469837A838B83DF
:100E60009C832D833E834F83588789E0E82EF12CA5
:100E7000EC0EFD1EB701CE010196CED28E010F5EA3
:100E80001F4FB801CE010596C7D2AE01475E5F4F36
:100E9000B801C7016EDEE0D1E6E0A0963AC4A0E258
:100EA000B0E0E4E5F7E00FC469837A838B839C8329
:100EB0002D833E834F83588799E0E92EF12CEC0E69
:100EC000FD1EB701CE010196A7D28E010F5E1F4F06
:100ED000B801CE010596A0D29985923088F0898913
:100EE0008230C0F0943019F4823029F009C0843087
:100EF00029F4923079F467E171E0C6C0923041F490
:100F000020E09A858A89981321E02A87B701BCC01E
:100F1000823041F420E09A858A89981321E02A8B57
:100F2000B801B2C0CD84DE84EF84F8880D891E89B3
:100F30002F89388D88249924540140E050E060E0E6
:100F400070E0442455243201E0E0F0E0C6018170F5
:100F50009070892BD9F0800E911EA21EB31EDB016A
:100F6000CA01840D951DA61DB71D40E050E060E04C
:100F700070E080169106A206B30620F441E050E02E
:100F800060E070E0480F591F6A1F7B1F440C551C1E
:100F9000661C771C37FF08C081E090E0A0E0B0E05D
:100FA000482A592A6A2A7B2A3196E032F10549F00B
:100FB000000F111F221F331FF694E794D794C79494
:100FC000C5CF8B899C892B853C85820F931F029608
:100FD0009C8F8B8F1A8E9A858A89981711F081E0E1
:100FE0008A8F2B8D3C8D17C0CA0181709070892B20
:100FF00061F0B694A7949794879480E090E0A0E085
:10100000B0E8882A992AAA2ABB2A76956795579527
:1010100047952F5F3F4F77FDE7CFC9010BC0440FC6
:10102000551F661F771FB7FC4160880C991CAA1CCE
:10103000BB1C01974030A0E05A07A0E06A07A0E47B
:101040007A0768F39C8F8B8FDB01CA018F779070D2
:10105000A070B07080349105A105B10561F447FD21
:101060000AC081149104A104B10429F0405C5F4FCF
:101070006F4F7F4F40784D8F5E8F6F8F78A383E0E7
:10108000898FBE01675E7F4FCB01E6D0E0E1A0967D
:1010900036C3A8E1B0E0EEE4F8E01FC369837A83C9
:1010A0008B839C832D833E834F83588789E0E82E72
:1010B000F12CEC0EFD1EB701CE010196ADD18E01D3
:1010C0000F5E1F4FB801CE010596A6D189858230EB
:1010D00058F08989823040F0B801C7010DD2282F1D
:1010E000332727FD309502C02FEF3FEFC901E6E01F
:1010F00068960FC3A8E1B0E0EFE7F8E0EEC26983BD
:101100007A838B839C832D833E834F83588789E02A
:10111000E82EF12CEC0EFD1EB701CE0101967CD11C
:101120008E010F5E1F4FB801CE01059675D18985DE
:10113000823058F08989823040F0B801C701DCD193
:10114000282F332727FD309502C02FEF3FEFC9012D
:10115000E6E06896DEC2A8E1B0E0E0EBF8E0BDC2F0
:1011600069837A838B839C832D833E834F83588747
:1011700089E0E82EF12CEC0EFD1EB701CE010196A0
:101180004BD18E010F5E1F4FB801CE01059644D1A1
:101190008985823058F08989823040F0B801C701D2
:1011A000ABD1282F332727FD309502C021E030E056
:1011B000C901E6E06896ADC2ACE0B0E0E1EEF8E06F
:1011C00090C269837A838B839C83BE016B5F7F4F60
:1011D000CE01019621D18D818230A9F1823098F122
:1011E000843021F48E81882359F40FC02F813885F3
:1011F00037FD29C06E812F31310564F0662329F057
:1012000020E030E040E050E822C02FEF3FEF4FEF0A
:101210005FE71DC08EE190E0821B930B29853A8524
:101220004B855C8504C056954795379527958A95DB
:10123000D2F7662361F050954095309521953F4F48
:101240004F4F5F4F04C020E030E040E050E0CA0163
:10125000B901E2E02C9661C29F92AF92BF92CF9209
:10126000DF92EF92FF920F931F93EE24FF248701EA
:10127000FC012481358146815781918080818230B3
:1012800010F44061A2C0843009F49BC0823029F47C
:1012900020E030E040E050E005C021153105410577
:1012A000510519F4E0E0F0E092C0828193816FEF84
:1012B000823896070CF05AC062E87FEF681B790B02
:1012C0006A3171052CF020E030E040E050E02AC0A7
:1012D000AA24BB24650181E090E0A0E0B0E0062EE6
:1012E00004C0880F991FAA1FBB1F0A94D2F7019749
:1012F000A109B10982239323A423B5230097A10553
:10130000B10529F071E0A72EB12CC12CD12C04C05D
:1013100056954795379527956A95D2F72A293B29FF
:101320004C295D29DA01C9018F779070A070B070E7
:1013300080349105A105B10539F427FF09C0205C6F
:101340003F4F4F4F5F4F04C0215C3F4F4F4F5F4FA8
:1013500080E090E0203060E0360760E0460760E41F
:10136000560710F081E090E0FC0123C08038910521
:1013700044F5FC01E158FF4FDA01C9018F77907005
:10138000A070B07080349105A105B10539F427FF34
:1013900009C0205C3F4F4F4F5F4F04C0215C3F4F5F
:1013A0004F4F5F4F57FF05C0569547953795279587
:1013B000319687E056954795379527958A95D1F7C9
:1013C00006C020E030E040E050E0EFEFF0E0E22E39
:1013D000F32E942F9F77802F8078892B9E2F9795BF
:1013E000992797958F77082F092B9E2F9695812FF8
:1013F0008078892B9794992497948F77182F19299F
:10140000C801B7011F910F91FF90EF90DF90CF902F
:10141000BF90AF909F900895CF93DF93FC01DB01C5
:10142000208131819281492F4F7750E0991F992770
:10143000991F8381E82FEE0FE92B6E2F70E0881F34
:101440008827881FED018983EE2371F52115310569
:101450004105510511F482E02FC06E577040FD0127
:101460007383628367E0220F331F441F551F6A9501
:10147000D1F783E08C930AC0220F331F441F551FFE
:10148000ED018A819B8101979B838A832030E0E074
:101490003E07E0E04E07E0E45E0770F3ED012C83C9
:1014A0003D834E835F8325C0EF3F79F421153105DD
:1014B0004105510519F484E08C931BC044FF03C01F
:1014C00081E08C9311C01C920FC06F577040ED01EA
:1014D0007B836A8383E08C9387E0220F331F441F52
:1014E000551F8A95D1F75064FD01248335834683C7
:1014F0005783DF91CF910895CF93DF93DC01FB01F8
:101500009C91923008F446C08081823008F442C039
:10151000943049F4ED016981843079F5818190E05E
:10152000861B91093CC0843021F0923031F4823026
:10153000A1F18181882371F52AC0ED016981823092
:10154000E1F081816817C9F4ED012A813B81828134
:101550009381821793078CF028173907B4F0ED01B7
:101560008C819D81AE81BF812481358146815781E7
:10157000281739074A075B0718F4662341F40AC0A5
:1015800082179307A407B50740F4662319F48FEF79
:101590009FEF05C081E090E002C080E090E0DF9125
:1015A000CF910895A0E0B0E0E7EDFAE092C0EC0141
:1015B000688179818A819B81611571058105910519
:1015C00049F484E2A82E89EDB82E8BE5C82E87E079
:1015D000D82E02C05B016C01C601B5012DE133EFCD
:1015E00041E050E0C4D027EA31E440E050E0A0D030
:1015F0007B018C01C601B5012DE133EF41E050E0E4
:10160000B6D0CA01B90124E13BE040E050E090D0FF
:10161000E61AF70A080B190B17FF08C08FEF9FEFA8
:10162000AFEFBFE7E80EF91E0A1F1B1FE882F98221
:101630000A831B83C7019F77EAE0CDB7DEB765C099
:10164000B1DF08958FE191E0ADDF0895A0E0B0E053
:1016500080931F0190932001A0932101B093220158
:101660000895FB01DC018D91019080190110D9F3DF
:10167000990B089597FB092E07260AD077FD04D011
:101680000CD006D000201AF4709561957F4F089514
:10169000F6F7909581959F4F0895AA1BBB1B51E1CA
:1016A00007C0AA1FBB1FA617B70710F0A61BB70BD2
:1016B000881F991F5A95A9F780959095BC01CD0177
:1016C00008952F923F924F925F926F927F928F92E6
:1016D0009F92AF92BF92CF92DF92EF92FF920F93C1
:1016E0001F93CF93DF93CDB7DEB7CA1BDB0B0FB6CB
:1016F000F894DEBF0FBECDBF09942A883988488888
:101700005F846E847D848C849B84AA84B984C8841D
:10171000DF80EE80FD800C811B81AA81B981CE0F14
:10172000D11D0FB6F894DEBF0FBECDBFED010895F9
:10173000629FD001739FF001829FE00DF11D649FB5
:10174000E00DF11D929FF00D839FF00D749FF00D41
:10175000659FF00D9927729FB00DE11DF91F639FE2
:10176000B00DE11DF91FBD01CF011124089597FBB4
:10177000092E05260ED057FD04D014D00AD0001C27
:1017800038F450954095309521953F4F4F4F5F4F1E
:101790000895F6F790958095709561957F4F8F4FDE
:1017A0009F4F0895A1E21A2EAA1BBB1BFD010DC07D
:1017B000AA1FBB1FEE1FFF1FA217B307E407F50701
:1017C00020F0A21BB30BE40BF50B661F771F881FDD
:1017D000991F1A9469F760957095809590959B0173
:0A17E000AC01BD01CF010895FFCF59
:1017EA004449525F524F544154455F4C4546540058
:1017FA004449525F524F544154455F5249474854F5
:10180A00004449525F4657445F534C4F570044497E
:10181A00525F4657445F46415354004449525F461B
:10182A0057445F4C454654004449525F4657445F0B
:10183A005249474854004449525F5245565F534CF7
:10184A004F57004449525F5245565F464153540030
:10185A004449525F5245565F4C45465400444952EA
:10186A005F5245565F5249474854004449525F52B5
:10187A0045565F53544F500043414C4942524154DC
:10188A00455F504C55530043414C494252415445DF
:10189A005F4D494E55530000000000000000000152
:0418AA00000000003A
:00000001FF
