:1000000038C052C051C050C04FC04EC04DC04CC08F
:100010004BC04AC049C0C5C047C046C045C044C027
:1000200043C042C041C00A00436F6D6D616E6420E1
:1000300052656365697665643A20004F46460A005A
:100040004F4E0A004672616D696E67204572726F8D
:10005000722044657465637465640A005265636563
:1000600069657665204275666665722046756C6CBA
:100070000A0011241FBECFE5D4E0DEBFCDBF10E0E3
:10008000A0E6B0E0ECE6F2E002C005900D92A036EA
:10009000B107D9F710E0A0E6B0E001C01D92A13889
:1000A000B107E1F70AD0E0C0ABCF10BC8CE089B952
:1000B000599A8AB188698AB908958FEF87BB14BAB3
:1000C0008EEF85BB83B310BC8CE089B9599A8AB195
:1000D00088698AB9789448EA51E6EBE3F0E0349114
:1000E0006DE0E0E4F0E02491CA010197F1F7989BFC
:1000F00011C0822FE0E4F0E00AC08A3019F45D9B61
:10010000FECF6CB95D9BFECF8CB93196849188236C
:10011000A1F710C0832FEBE3F0E00AC08A3019F496
:100120005D9BFECF6CB95D9BFECF8CB931968491FF
:100130008823A1F783B388BBD7CF9C01E8E2F0E026
:1001400084919DE00AC08A3019F45D9BFECF9CB972
:100150005D9BFECF8CB9319684918823A1F7F9017C
:100160009DE009C08A3019F45D9BFECF9CB95D9B70
:10017000FECF31968CB980818823A1F7E6E2F0E0CA
:1001800084919DE00AC08A3019F45D9BFECF9CB932
:100190005D9BFECF8CB9319684918823A1F781E0D5
:1001A00008951F920F920FB60F9211242F933F9331
:1001B0004F935F936F937F938F939F93AF93BF936F
:1001C000EF93FF932CB15C992BC0E09180002D3010
:1001D00051F4F0E0E05AFF4F10821092800080E668
:1001E00090E0ABDF30C09E2F9F5F909380009032F5
:1001F00088F0ECE5F0E084913DE00AC08A3019F423
:100200005D9BFECF3CB95D9BFECF8CB9319684914E
:100210008823A1F7E92FF0E0E15AFF4F208313C0B4
:1002200010928000E4E4F0E084919DE00AC08A30FE
:1002300019F45D9BFECF9CB95D9BFECF8CB93196C6
:1002400084918823A1F7FF91EF91BF91AF919F9186
:100250008F917F916F915F914F913F912F910F906F
:0C0260000FBE0F901F901895F894FFCF70
:00000001FF
