:1000000012C02CC02BC0FFC0DAC028C027C026C039
:1000100025C024C023C022C021C020C01FC01EC0D4
:100020001DC01CC01BC011241FBECFE5D4E0DEBF25
:10003000CDBF11E0A0E6B0E0E0EFFCE002C005902B
:100040000D92A836B107D9F711E0A8E6B1E001C0DA
:100050001D92A337B107E1F73FD049C6D1CF8091B8
:100060006D0190916E01059690936E0180936D01E4
:10007000885E934020F010926E0110926D01809185
:100080006D0190916E0190936901809368010895CC
:1000900010926A0180E29EE490936C0180936B0160
:1000A00088EE93E090936E0180936D018AE090E07A
:1000B0009093700180936F01109272011092710100
:1000C000A59A85B5886485BD13BC89B7806C89BF46
:1000D00085B5816085BD0895DBDF789487B38FEFA8
:1000E00087BBBDDF88B391E0892788BB88EA91E6AA
:1000F0000197F1F7F6CFEF92FF920F931F93F894C9
:10010000109272011092710180916A018823D1F4DA
:1001100081E080936A01AD9A00916D0110916E01AA
:1001200083B5B801680F711D672F772780E090E0D5
:10013000C7D25FD58CD07093700160936F0183B587
:10014000800F21C0813001F510926A01AD980091B5
:100150006B0110916C01E0906D01F0906E0163B540
:1001600070E06E197F09600F711F672F772780E09D
:1001700090E0A6D23ED56BD07093700160936F0172
:1001800083B5800F8E1983BD1F910F91FF90EF9063
:1001900008952091710130917201813039F42F5FFF
:1001A0003F4F3093720120937101089580916F0148
:1001B000909170012817390708F09DDF08951F926C
:1001C0000F920FB60F9211242F933F934F935F938B
:1001D0006F937F938F939F93AF93BF93EF93FF930F
:1001E00081E0D7DFFF91EF91BF91AF919F918F9108
:1001F0007F916F915F914F913F912F910F900FBE23
:100200000F901F9018951F920F920FB60F92112406
:100210002F933F934F935F936F937F938F939F930E
:10022000AF93BF93EF93FF9380E0B3DFFF91EF9124
:10023000BF91AF919F918F917F916F915F914F91FE
:100240003F912F910F900FBE0F901F901895EF9236
:10025000FF920F931F937B018C0120E030E040E080
:100260005FE4ADD188236CF020E030E040E05FE453
:10027000C801B70152D1D4D160507040804090483D
:1002800003C0C801B701CCD11F910F91FF90EF902F
:100290000895A0E0B0E0EEE4F1E076C42C015B014B
:1002A000FA01DC019C91923008F432C1EB018881A3
:1002B000823008F42CC1943071F4843009F028C1E4
:1002C000F20191818981981709F422C110E6412E2B
:1002D00010E0512E1DC1843009F419C18230A9F4F7
:1002E000923009F015C1CA01A20128E0DA010D908F
:1002F000AD01EC010992CE012150C1F7E5018981E0
:10030000E20199818923818300C1923009F4FFC001
:10031000E201CA80DB80EB018A819B81E2012C81B2
:100320003D814E815F81EB01EC80FD800E811F815C
:10033000B601681B790BDB0177FF03C070956195EF
:100340007F4F603271050CF05DC01A161B065CF51C
:1003500066247724430181E090E0A0E0B0E0062E1F
:1003600004C0880F991FAA1FBB1F0A94D2F70197D8
:10037000A109B1098E219F21A023B1230097A105D6
:10038000B10529F0B1E06B2E712C812C912C04C0A9
:1003900016950795F794E7946A95D2F7E628F7281B
:1003A000082919293BC0AB2BC9F1C60ED71E6624FC
:1003B0007724430181E090E0A0E0B0E0062E04C085
:1003C000880F991FAA1FBB1F0A94D2F70197A10992
:1003D000B10982239323A423B5230097A105B10576
:1003E00029F0A1E06A2E712C812C912C04C0569525
:1003F0004795379527956A95D2F7262937294829B1
:1004000059290CC08C159D0534F06C0120E030E0BA
:1004100040E050E003C0EE24FF248701E20199810F
:10042000E5018981981709F443C0992339F0E21A4C
:10043000F30A040B150BA801970104C02E193F09FC
:10044000400B510B57FD08C01182D382C282248316
:100450003583468357831DC081E08183D382C28266
:1004600088279927DC01821B930BA40BB50B84838F
:100470009583A683B7830DC0220F331F441F551FDA
:1004800024833583468357838281938101979383A5
:1004900082832481358146815781DA01C901019720
:1004A000A109B1098F5F9F4FAF4FBF4328F30BC026
:1004B0009183D382C2822E0D3F1D401F511F248382
:1004C00035834683578383E0808324813581468149
:1004D00057815523D4F4C901AA2797FDA095BA2FB7
:1004E00081709070A070B07056954795379527959C
:1004F000822B932BA42BB52B84839583A683B78360
:10050000828193810196938382832F0101C025010B
:10051000C201E0E1CDB7DEB753C3A0E2B0E0E2E94B
:10052000F2E03CC369837A838B839C832D833E8373
:100530004F83588709E0E02EF12CEC0EFD1EB70129
:10054000CE01019659D28E010F5E1F4FB801CE0128
:10055000059652D28A8991E089278A8BAE01475E3F
:100560005F4FB801C70195DE67D1E6E0A09632C3C0
:10057000A0E2B0E0EDEBF2E011C369837A838B83F4
:100580009C832D833E834F83588789E0E82EF12C8E
:10059000EC0EFD1EB701CE0101962ED28E010F5E2C
:1005A0001F4FB801CE01059627D2AE01475E5F4FBF
:1005B000B801C7016EDE40D1E6E0A0960BC3A8E10A
:1005C000B0E0E4EEF2E0EAC269837A838B839C8335
:1005D0002D833E834F83588789E0E82EF12CEC0E63
:1005E000FD1EB701CE01019607D28E010F5E1F4F8F
:1005F000B801CE01059600D28985823058F08989EC
:10060000823040F0B801C70167D2282F332727FD79
:10061000309502C02FEF3FEFC901E6E06896DAC2DD
:10062000ACE0B0E0E5E1F3E0BDC269837A838B839F
:100630009C83BE016B5F7F4FCE010196DDD18D8122
:100640008230A9F1823098F1843021F48E818823A0
:1006500059F40FC02F81388537FD29C06E812F31A5
:10066000310564F0662329F020E030E040E050E8F6
:1006700022C02FEF3FEF4FEF5FE71DC08EE190E00C
:10068000821B930B29853A854B855C8504C0569562
:100690004795379527958A95D2F7662361F050954F
:1006A0004095309521953F4F4F4F5F4F04C020E05C
:1006B00030E040E050E0CA01B901E2E02C968EC281
:1006C000A8E0B0E0E5E6F3E067C27B018C016115CC
:1006D00071058105910519F482E0898359C083E091
:1006E00089838EE1C82ED12CDC82CB82ED82FE8202
:1006F0000F831887C801B70152D0BC016150704008
:1007000077FF33C0EE27FF27E61BF70B20E030E032
:1007100040E050E081E090E0A0E0B0E00E2E04C0A8
:10072000880F991FAA1FBB1F0A94D2F70197A1092E
:10073000B1098E219F21A023B1230097A105B10506
:1007400021F021E030E040E050E004C0169507952C
:10075000F794E794EA95D2F72E293F29402B512BA5
:100760002D833E834F8358870FC06115710581F03B
:10077000062E04C0EE0CFF1C001F111F0A94D2F7B6
:10078000ED82FE820F831887C61AD70ADC82CB82DD
:100790001A82CE01019650D0E8E0289619C2EF9255
:1007A000FF920F931F939B01AC01203080E038072C
:1007B00081E0480780E0580780F42F3F310541056C
:1007C000510509F020F4EE24FF24870119C068E0E8
:1007D000E62EF12C012D112D13C0203080E03807BA
:1007E00080E0480781E0580730F490E1E92EF12CD1
:1007F000012D112D05C088E1E82EF12C012D112DC0
:1008000080E290E0A0E0B0E08E199F09A00BB10B50
:1008100004C05695479537952795EA94D2F7F90184
:10082000E859FF4F2081821B9109A109B1091F914D
:100830000F91FF90EF9008959F92AF92BF92CF9249
:10084000DF92EF92FF920F931F93EE24FF24870114
:10085000FC012481358146815781918080818230DD
:1008600010F44061A2C0843009F49BC0823029F4A6
:1008700020E030E040E050E005C0211531054105A1
:10088000510519F4E0E0F0E092C0828193816FEFAE
:10089000823896070CF05AC062E87FEF681B790B2C
:1008A0006A3171052CF020E030E040E050E02AC0D1
:1008B000AA24BB24650181E090E0A0E0B0E0062E10
:1008C00004C0880F991FAA1FBB1F0A94D2F7019773
:1008D000A109B10982239323A423B5230097A1057D
:1008E000B10529F071E0A72EB12CC12CD12C04C088
:1008F00056954795379527956A95D2F72A293B292A
:100900004C295D29DA01C9018F779070A070B07011
:1009100080349105A105B10539F427FF09C0205C99
:100920003F4F4F4F5F4F04C0215C3F4F4F4F5F4FD2
:1009300080E090E0203060E0360760E0460760E449
:10094000560710F081E090E0FC0123C0803891054B
:1009500044F5FC01E158FF4FDA01C9018F7790702F
:10096000A070B07080349105A105B10539F427FF5E
:1009700009C0205C3F4F4F4F5F4F04C0215C3F4F89
:100980004F4F5F4F57FF05C05695479537952795B1
:10099000319687E056954795379527958A95D1F7F3
:1009A00006C020E030E040E050E0EFEFF0E0E22E63
:1009B000F32E942F9F77802F8078892B9E2F9795E9
:1009C000992797958F77082F092B9E2F9695812F22
:1009D0008078892B9794992497948F77182F1929C9
:1009E000C801B7011F910F91FF90EF90DF90CF905A
:1009F000BF90AF909F900895CF93DF93FC01DB01F0
:100A0000208131819281492F4F7750E0991F99279A
:100A1000991F8381E82FEE0FE92B6E2F70E0881F5E
:100A20008827881FED018983EE2371F52115310593
:100A30004105510511F482E02FC06E577040FD0151
:100A40007383628367E0220F331F441F551F6A952B
:100A5000D1F783E08C930AC0220F331F441F551F28
:100A6000ED018A819B8101979B838A832030E0E09E
:100A70003E07E0E04E07E0E45E0770F3ED012C83F3
:100A80003D834E835F8325C0EF3F79F42115310507
:100A90004105510519F484E08C931BC044FF03C049
:100AA00081E08C9311C01C920FC06F577040ED0114
:100AB0007B836A8383E08C9387E0220F331F441F7C
:100AC000551F8A95D1F75064FD01248335834683F1
:100AD0005783DF91CF910895CF93DF93DC01FB0122
:100AE0009C91923008F446C08081823008F442C064
:100AF000943049F4ED016981843079F5818190E089
:100B0000861B91093CC0843021F0923031F4823050
:100B1000A1F18181882371F52AC0ED0169818230BC
:100B2000E1F081816817C9F4ED012A813B8182815E
:100B30009381821793078CF028173907B4F0ED01E1
:100B40008C819D81AE81BF81248135814681578111
:100B5000281739074A075B0718F4662341F40AC0CF
:100B600082179307A407B50740F4662319F48FEFA3
:100B70009FEF05C081E090E002C080E090E0DF914F
:100B8000CF9108952F923F924F925F926F927F92F2
:100B90008F929F92AF92BF92CF92DF92EF92FF928D
:100BA0000F931F93CF93DF93CDB7DEB7CA1BDB0B39
:100BB0000FB6F894DEBF0FBECDBF09942A883988DE
:100BC00048885F846E847D848C849B84AA84B984E5
:100BD000C884DF80EE80FD800C811B81AA81B981F1
:100BE000CE0FD11D0FB6F894DEBF0FBECDBFED0105
:100BF00008953DD080F09F3740F491110EF04FC022
:100C000060E070E080E89FEB089526F41B16611DFC
:100C1000711D811D01C01BC0882371F4772321F051
:100C20009850872B762F07C0662311F499270DC0A3
:100C30009051862B70E060E02AF09A95660F771F3E
:100C4000881FDAF7880F9695879597F908959F3F43
:100C500049F0915028F4869577956795B7959F5FF1
:100C600080389F4F880F9695879597F9089525D0DE
:100C7000A0F0BEE7B91788F4BB279F3860F41616BA
:100C8000B11D672F782F8827985FF7CF86957795C6
:100C90006795B11D93959639C8F30895E894BB27DD
:100CA00066277727CB0197F9089557FD9058440F91
:100CB000551F59F05F3F71F04795880F97FB991FBB
:100CC00061F09F3F79F08795089512161306140678
:100CD000551FF2CF4695F1DF08C016161706180605
:100CE000991FF1CF86957105610508940895FFCF8E
:100CF00000000000000000000001020203030303E3
:100D0000040404040404040405050505050505059B
:100D1000050505050505050506060606060606067B
:100D20000606060606060606060606060606060663
:100D3000060606060606060607070707070707074B
:100D40000707070707070707070707070707070733
:100D50000707070707070707070707070707070723
:100D60000707070707070707070707070707070713
:100D700007070707070707070808080808080808FB
:100D800008080808080808080808080808080808E3
:100D900008080808080808080808080808080808D3
:100DA00008080808080808080808080808080808C3
:100DB00008080808080808080808080808080808B3
:100DC00008080808080808080808080808080808A3
:100DD0000808080808080808080808080808080893
:100DE0000808080808080808080808080808080883
:080DF0000808080808080808BB
:00000001FF
