:1000000030C04AC049C048C047C046C000C244C012
:1000100043C042C041C0E3C03FC03EC03DC03CC041
:100020003BC03AC039C0216275666665725F66750D
:100030006C6C0A00216672616D696E675F65727231
:100040006F720A00746573742E2E2E0A000A004324
:100050006F6D6D616E642052656365697665643AA3
:10006000200011241FBECFE5D4E0DEBFCDBF10E0DD
:10007000A0E6B0E0EAE8F1E102C005900D92AE36EC
:10008000B107D9F710E0AEE6B0E001C01D92A63985
:10009000B107E1F736D278C8B3CFCF93DF93CDB7AE
:1000A000DEB7E0E4F0E01082E9E2F0E087E680838A
:1000B000ABE2B0E0EBE2F0E080818D7F8C93AAE2CE
:1000C000B0E0EAE2F0E0808188698C93DF91CF9123
:1000D0000895CF93DF93CDB7DEB721970FB6F8948D
:1000E000DEBF0FBECDBF8983EBE2F0E08081882FB9
:1000F00090E0807290700097B9F3ECE2F0E08981B3
:10010000808321960FB6F894DEBF0FBECDBFDF917E
:10011000CF910895CF93DF93CDB7DEB722970FB677
:10012000F894DEBF0FBECDBF9A83898311C0E981E9
:10013000FA8180818A3011F48DE0CBDFE981FA8188
:10014000208189819A8101969A838983822FC1DFD8
:10015000E981FA818081882351F722960FB6F894BD
:10016000DEBF0FBECDBFDF91CF910895CF93DF9358
:10017000CDB7DEB729970FB6F894DEBF0FBECDBF5F
:1001800099878887888599859E838D83ED81FE81F7
:1001900084918C838C818F8316C08F818A3011F477
:1001A0008DE097DF8F8195DF888599850196998706
:1001B0008887888599859B838A83EA81FB818491DE
:1001C000898389818F838F81882339F729960FB698
:1001D000F894DEBF0FBECDBFDF91CF9108951F927F
:1001E0000F920FB60F9211242F933F934F935F936B
:1001F0006F937F938F939F93AF93BF93EF93FF93EF
:10020000CF93DF93CDB7DEB72197DEBFCDBFEBE253
:10021000F0E08081882F90E080719070009731F03D
:100220001092950084E390E0A1DF2BC0ECE2F0E0B7
:100230008081898389818D3071F480919500882F28
:1002400090E0FC01E259FF4F1082109295008EE67B
:1002500090E0D5D116C0809195008F5F8093950076
:1002600080919500803218F086E290E07FDF8091E7
:100270009500882F90E001972981FC01E259FF4FFA
:1002800020832196F894DEBFCDBFDF91CF91FF91FF
:10029000EF91BF91AF919F918F917F916F915F91FE
:1002A0004F913F912F910F900FBE0F901F90189577
:1002B000CF93DF93CDB7DEB7E7E3F0E08FE0808345
:1002C000AEE4B0E0EEE4F0E0808183608C93AEE4D5
:1002D000B0E0EEE4F0E0808188608C9310928F00B3
:1002E00010928E00109291001092900088EC90E095
:1002F000909393008093920081E080939400EAE4CD
:10030000F0E0809192009091930091838083A8E324
:10031000B0E080919400882F90E0FC01E05AFF4FFC
:10032000808180958C93DF91CF910895CF93DF9357
:10033000CDB7DEB722970FB6F894DEBF0FBECDBFA4
:100340009A83898389819A81909391008093900008
:10035000A8E5B0E0E8E5F0E0808180618C93E9E514
:10036000F0E080E1808322960FB6F894DEBF0FBEE6
:10037000CDBFDF91CF910895CF93DF93CDB7DEB797
:1003800022970FB6F894DEBF0FBECDBF9A83898344
:10039000209190003091910089819A81820F931F62
:1003A0009093910080939000A8E5B0E0E8E5F0E03C
:1003B000808180618C93E9E5F0E080E18083229682
:1003C0000FB6F894DEBF0FBECDBFDF91CF91089579
:1003D000CF93DF93CDB7DEB722970FB6F894DEBF89
:1003E0000FBECDBF9A838983ECE4F0E011821082C6
:1003F00089819A81909393008093920022960FB600
:10040000F894DEBF0FBECDBFDF91CF9108957894F1
:100410001F920F920FB60F9211242F933F938F9339
:100420009F93AF93BF93EF93FF93CF93DF93CDB79A
:10043000DEB7EAE4F0E0809192009091930091831E
:10044000808320918E0030918F0080919000909158
:1004500091002817390721F4E9E5F0E0108242C045
:10046000209190003091910080918E0090918F00AA
:1004700082179307B4F4809194008F5F8093940067
:1004800080919400853018F081E0809394008091F1
:100490008E0090918F00019690938F0080938E0034
:1004A00015C08091940081508093940080919400B5
:1004B000882319F484E08093940080918E009091B9
:1004C0008F00019790938F0080938E00A8E3B0E097
:1004D00080919400882F90E0FC01E05AFF4F8081CA
:1004E00080958C93DF91CF91FF91EF91BF91AF9168
:1004F0009F918F913F912F910F900FBE0F901F9062
:100500001895CF93DF93CDB7DEB72E970FB6F8943B
:10051000DEBF0FBECDBFC1DD789484E490E026DE5F
:1005200080E090E0A8ECB2E48B879C87AD87BE8723
:1005300020E030E04AE755E46B857C858D859E851B
:1005400069D2DC01CB018F839887A987BA8720E025
:1005500030E040E85FE36F81788589859A85B6D37E
:1005600088230CF005C081E090E09E838D833CC021
:1005700020E03FEF4FE757E46F81788589859A85C2
:1005800043D318160CF027C020E030E040E251E4DD
:100590006B857C858D859E853DD2DC01CB01BC01C0
:1005A000CD0180D0DC01CB019E838D830FC080E91B
:1005B00091E09C838B838B819C810197F1F79C83D5
:1005C0008B838D819E8101979E838D838D819E81FA
:1005D000009769F7A2CF6F81788589859A8562D067
:1005E000DC01CB019E838D838D819E819A838983DB
:1005F00089819A810197F1F79A8389838ECFCF936E
:10060000DF93CDB7DEB722970FB6F894DEBF0FBEEB
:10061000CDBF9A8389838FE490E0A8DD89819A8198
:1006200079DD8DE490E0A2DD22960FB6F894DEBF6E
:100630000FBECDBFDF91CF910895CF93DF93CDB79C
:10064000DEB726970FB6F894DEBF0FBECDBF9E83F0
:100650008D832D813E81C901880F991F820F931FC1
:100660009E838D831C821B820DC01A821982898110
:100670009A810197F1F79A8389838B819C810196F6
:100680009C838B832B813C818D819E818217930774
:1006900060F726960FB6F894DEBF0FBECDBFDF9190
:1006A000CF910895EF92FF920F931F937B018C01DE
:1006B00020E030E040E05FE4D8D288236CF020E016
:1006C00030E040E05FE4C801B70152D130D3605060
:1006D00070408040904803C0C801B70128D31F91E3
:1006E0000F91FF90EF900895A0E0B0E0E9E7F3E00C
:1006F00016C52C015B01FA01DC019C91923008F4D3
:1007000032C1EB018881823008F42CC1943071F43D
:10071000843009F028C1F20191818981981709F488
:1007200022C115E6412E10E0512E1DC1843009F47E
:1007300019C18230A9F4923009F015C1CA01A20191
:1007400028E0DA010D90AD01EC010992CE012150B3
:10075000C1F7E5018981E20199818923818300C183
:10076000923009F4FFC0E201CA80DB80EB018A818C
:100770009B81E2012C813D814E815F81EB01EC8008
:10078000FD800E811F81B601681B790BDB0177FFAD
:1007900003C0709561957F4F603271050CF05DC0AC
:1007A0001A161B065CF566247724430181E090E06D
:1007B000A0E0B0E0062E04C0880F991FAA1FBB1F3F
:1007C0000A94D2F70197A109B1098E219F21A02394
:1007D000B1230097A105B10529F0B1E06B2E712C72
:1007E000812C912C04C016950795F794E7946A958F
:1007F000D2F7E628F728082919293BC0AB2BC9F105
:10080000C60ED71E66247724430181E090E0A0E065
:10081000B0E0062E04C0880F991FAA1FBB1F0A94C0
:10082000D2F70197A109B10982239323A423B52309
:100830000097A105B10529F0A1E06A2E712C812C49
:10084000912C04C056954795379527956A95D2F710
:1008500026293729482959290CC08C159D0534F0C3
:100860006C0120E030E040E050E003C0EE24FF24C3
:100870008701E2019981E5018981981709F443C054
:10088000992339F0E21AF30A040B150BA80197011A
:1008900004C02E193F09400B510B57FD08C01182AF
:1008A000D382C28224833583468357831DC081E06F
:1008B0008183D382C28288279927DC01821B930B14
:1008C000A40BB50B84839583A683B7830DC0220F39
:1008D000331F441F551F24833583468357838281EA
:1008E0009381019793838283248135814681578147
:1008F000DA01C9010197A109B1098F5F9F4FAF4F7D
:10090000BF4328F30BC09183D382C2822E0D3F1DBB
:10091000401F511F248335834683578383E08083A0
:1009200024813581468157815523D4F4C901AA27F2
:1009300097FDA095BA2F81709070A070B0705695F9
:10094000479537952795822B932BA42BB52B848322
:100950009583A683B7838281938101969383828353
:100960002F0101C02501C201E0E1CDB7DEB7F3C31D
:10097000A0E2B0E0EDEBF4E0DCC369837A838B8323
:100980009C832D833E834F83588709E0E02EF12C12
:10099000EC0EFD1EB701CE010196F9D28E010F5E5D
:1009A0001F4FB801CE010596F2D28A8991E08927BE
:1009B0008A8BAE01475E5F4FB801C70195DE07D253
:1009C000E6E0A096D2C3A0E2B0E0E8EEF4E0B1C366
:1009D00069837A838B839C832D833E834F835887DF
:1009E00089E0E82EF12CEC0EFD1EB701CE01019638
:1009F000CED28E010F5E1F4FB801CE010596C7D231
:100A0000AE01475E5F4FB801C7016EDEE0D1E6E0A0
:100A1000A096ABC3A0E2B0E0EFE0F5E080C369834D
:100A20007A838B839C832D833E834F83588799E001
:100A3000E92EF12CEC0EFD1EB701CE010196A7D2D6
:100A40008E010F5E1F4FB801CE010596A0D2998589
:100A5000923088F089898230C0F0943019F4823065
:100A600029F009C0843029F4923079F465E670E009
:100A7000C6C0923041F420E09A858A89981321E01B
:100A80002A87B701BCC0823041F420E09A858A8968
:100A9000981321E02A8BB801B2C0CD84DE84EF84A4
:100AA000F8880D891E892F89388D8824992454014E
:100AB00040E050E060E070E0442455243201E0E082
:100AC000F0E0C60181709070892BD9F0800E911EE4
:100AD000A21EB31EDB01CA01840D951DA61DB71D04
:100AE00040E050E060E070E080169106A206B30698
:100AF00020F441E050E060E070E0480F591F6A1FA9
:100B00007B1F440C551C661C771C37FF08C081E016
:100B100090E0A0E0B0E0482A592A6A2A7B2A319660
:100B2000E032F10549F0000F111F221F331FF69428
:100B3000E794D794C794C5CF8B899C892B853C8536
:100B4000820F931F02969C8F8B8F1A8E9A858A89AB
:100B5000981711F081E08A8F2B8D3C8D17C0CA0148
:100B600081709070892B61F0B694A79497948794C4
:100B700080E090E0A0E0B0E8882A992AAA2ABB2A5F
:100B800076956795579547952F5F3F4F77FDE7CF50
:100B9000C9010BC0440F551F661F771FB7FC41608A
:100BA000880C991CAA1CBB1C01974030A0E05A0776
:100BB000A0E06A07A0E47A0768F39C8F8B8FDB01C3
:100BC000CA018F779070A070B07080349105A10534
:100BD000B10561F447FD0AC081149104A104B10478
:100BE00029F0405C5F4F6F4F7F4F40784D8F5E8F95
:100BF0006F8F78A383E0898FBE01675E7F4FCB0143
:100C0000E6D0E0E1A096A7C2A8E1B0E0E9E0F6E016
:100C100090C269837A838B839C832D833E834F8329
:100C2000588789E0E82EF12CEC0EFD1EB701CE01AD
:100C30000196ADD18E010F5E1F4FB801CE01059612
:100C4000A6D18985823058F08989823040F0B80178
:100C5000C7010DD2282F332727FD309502C02FEF73
:100C60003FEFC901E6E0689680C2A8E1B0E0EAE3A0
:100C7000F6E05FC269837A838B839C832D833E83F6
:100C80004F83588789E0E82EF12CEC0EFD1EB7014A
:100C9000CE0101967CD18E010F5E1F4FB801CE01AF
:100CA000059675D18985823058F08989823040F067
:100CB000B801C701DCD1282F332727FD309502C0AA
:100CC0002FEF3FEFC901E6E068964FC2A8E1B0E020
:100CD000EBE6F6E02EC269837A838B839C832D83B7
:100CE0003E834F83588789E0E82EF12CEC0EFD1EE1
:100CF000B701CE0101964BD18E010F5E1F4FB80197
:100D0000CE01059644D18985823058F08989823098
:100D100040F0B801C701ABD1282F332727FD30950C
:100D200002C021E030E0C901E6E068961EC2ACE0F6
:100D3000B0E0ECE9F6E001C269837A838B839C839F
:100D4000BE016B5F7F4FCE01019621D18D81823034
:100D5000A9F1823098F1843021F48E81882359F4EE
:100D60000FC02F81388537FD29C06E812F313105A5
:100D700064F0662329F020E030E040E050E822C033
:100D80002FEF3FEF4FEF5FE71DC08EE190E0821B3A
:100D9000930B29853A854B855C8504C0569547950C
:100DA000379527958A95D2F7662361F0509540953F
:100DB000309521953F4F4F4F5F4F04C020E030E00A
:100DC00040E050E0CA01B901E2E02C96D2C19F9206
:100DD000AF92BF92CF92DF92EF92FF920F931F9349
:100DE000EE24FF248701FC0124813581468157814F
:100DF00091808081823010F44061A2C0843009F477
:100E00009BC0823029F420E030E040E050E005C093
:100E1000211531054105510519F4E0E0F0E092C0DB
:100E2000828193816FEF823896070CF05AC062E896
:100E30007FEF681B790B6A3171052CF020E030E000
:100E400040E050E02AC0AA24BB24650181E090E084
:100E5000A0E0B0E0062E04C0880F991FAA1FBB1F98
:100E60000A94D2F70197A109B10982239323A423FD
:100E7000B5230097A105B10529F071E0A72EB12C8B
:100E8000C12CD12C04C056954795379527956A9566
:100E9000D2F72A293B294C295D29DA01C9018F772C
:100EA0009070A070B07080349105A105B10539F43F
:100EB00027FF09C0205C3F4F4F4F5F4F04C0215CAC
:100EC0003F4F4F4F5F4F80E090E0203060E03607AB
:100ED00060E0460760E4560710F081E090E0FC0116
:100EE00023C08038910544F5FC01E158FF4FDA0139
:100EF000C9018F779070A070B07080349105A10502
:100F0000B10539F427FF09C0205C3F4F4F4F5F4FB9
:100F100004C0215C3F4F4F4F5F4F57FF05C05695B0
:100F2000479537952795319687E05695479537959C
:100F300027958A95D1F706C020E030E040E050E0E8
:100F4000EFEFF0E0E22EF32E942F9F77802F807842
:100F5000892B9E2F9795992797958F77082F092B87
:100F60009E2F9695812F8078892B9794992497941A
:100F70008F77182F1929C801B7011F910F91FF9082
:100F8000EF90DF90CF90BF90AF909F900895CF9358
:100F9000DF93FC01DB01208131819281492F4F7762
:100FA00050E0991F9927991F8381E82FEE0FE92BB5
:100FB0006E2F70E0881F8827881FED018983EE233C
:100FC00071F5211531054105510511F482E02FC05D
:100FD0006E577040FD017383628367E0220F331FF9
:100FE000441F551F6A95D1F783E08C930AC0220FE6
:100FF000331F441F551FED018A819B8101979B83FD
:101000008A832030E0E03E07E0E04E07E0E45E0740
:1010100070F3ED012C833D834E835F8325C0EF3F4A
:1010200079F4211531054105510519F484E08C93BB
:101030001BC044FF03C081E08C9311C01C920FC001
:101040006F577040ED017B836A8383E08C9387E068
:10105000220F331F441F551F8A95D1F75064FD019D
:101060002483358346835783DF91CF910895CF93AF
:10107000DF93DC01FB019C91923008F446C0808133
:10108000823008F442C0943049F4ED016981843023
:1010900079F5818190E0861B91093CC0843021F074
:1010A000923031F48230A1F18181882371F52AC018
:1010B000ED0169818230E1F081816817C9F4ED01A9
:1010C0002A813B8182819381821793078CF02817B4
:1010D0003907B4F0ED018C819D81AE81BF812481FF
:1010E000358146815781281739074A075B0718F46D
:1010F000662341F40AC082179307A407B50740F49A
:10110000662319F48FEF9FEF05C081E090E002C0E5
:1011100080E090E0DF91CF9108952F923F924F921F
:101120005F926F927F928F929F92AF92BF92CF9277
:10113000DF92EF92FF920F931F93CF93DF93CDB780
:10114000DEB7CA1BDB0B0FB6F894DEBF0FBECDBFF8
:1011500009942A88398848885F846E847D848C84C9
:101160009B84AA84B984C884DF80EE80FD800C81D2
:101170001B81AA81B981CE0FD11D0FB6F894DEBFB5
:0A1180000FBECDBFED010895FFCFB3
:0E118A000003060C0900000000000000000039
:00000001FF
