:100000000C942A000C9434000C9434000C943400AA
:100010000C9434000C9434000C9434000C94340090
:100020000C9434000C9434000C9434000C94340080
:100030000C9434000C9434000C9434000C94340070
:100040000C9434000C9434000C9434000C94340060
:100050000C94340011241FBECFE5D8E0DEBFCDBF25
:100060000E9436000C946D000C9400008BED84BB54
:100070008EE785BB78940E944E0083E090E00E945A
:100080005C0080E090E068E770E00E94620081E040
:1000900090E06FEF70E00E946200FFCF81B3806359
:1000A00081BB1BBC1ABC19BC18BC8FB5836A8FBD41
:1000B0008EB581608EBD08959EB58770987F892B1F
:1000C0008EBD0895882319F0813031F403C07BBDC3
:0E00D0006ABD089579BD68BD0895F894FFCF0C
:00000001FF
