:100000000C942A000C9441000C9434000C9434009D
:100010000C9434000C9434000C9434000C94340090
:100020000C9434000C9434000C9434000C94340080
:100030000C9434000C9434000C9434000C94340070
:100040000C9434000C9434000C9434000C94340060
:100050000C94340011241FBECFE5D8E0DEBFCDBF25
:100060000E9436000C9453000C94000078948FEF9B
:1000700087BB85B7816085BF8BB780648BBFFFCF9F
:1000800008951F920F920FB60F9211248F939F9392
:1000900088B391E0892788BB9F918F910F900FBE05
:0A00A0000F901F901895F894FFCF01
:00000001FF
