:100000007CC096C095C094C093C092C060C290C09E
:100010008FC08EC08DC043C18BC08AC089C088C0CC
:1000200087C086C085C04672616D696E6720457263
:10003000726F722044657465637465640A0052656A
:1000400063656965766520427566666572204675EA
:100050006C6C0A00646F6E650A00757361727420BF
:10006000696E697469616C697A65642C20696E696E
:100070007469616C697A696E672073746570706504
:1000800072206D6F746F722E2E2E20000A0A536537
:100090007269616C20506F72742053746570706562
:1000A00072204D6F746F72204472697665722031D0
:1000B0002E300A00636F6D6D616E64206E6F742068
:1000C000666F756E640A00706572696F642064659E
:1000D00066696E65640A0072656C20706F732064D7
:1000E0006566696E65640A0061627320706F7320D3
:1000F000646566696E65640A000011241FBECFE561
:10010000D4E0DEBFCDBF10E0A0E6B0E0E0E2F8E072
:1001100002C005900D92A437B107D9F710E0A4E70B
:10012000B0E001C01D92AC39B107E1F74AD277C304
:1001300067CFCF93DF93CDB7DEB722970FB6F89492
:10014000DEBF0FBECDBF8CE090E09A838983E0E4F0
:10015000F0E089819A81892F99278083E9E2F0E094
:1001600089818083ABE2B0E0EBE2F0E080818260E5
:100170008C93AAE2B0E0EAE2F0E0808188698C9397
:1001800022960FB6F894DEBF0FBECDBFDF91CF91A0
:100190000895CF93DF93CDB7DEB721970FB6F894CC
:1001A000DEBF0FBECDBF8983EBE2F0E08081882FF8
:1001B00090E0807290700097B9F3ECE2F0E08981F2
:1001C000808321960FB6F894DEBF0FBECDBFDF91BE
:1001D000CF910895CF93DF93CDB7DEB722970FB6B7
:1001E000F894DEBF0FBECDBF9A83898311C0E98129
:1001F000FA8180818A3011F48DE0CBDFE981FA81C8
:10020000208189819A8101969A838983822FC1DF17
:10021000E981FA818081882351F722960FB6F894FC
:10022000DEBF0FBECDBFDF91CF910895CF93DF9397
:10023000CDB7DEB729970FB6F894DEBF0FBECDBF9E
:1002400099878887888599859E838D83ED81FE8136
:1002500084918C838C818F8316C08F818A3011F4B6
:100260008DE097DF8F8195DF888599850196998745
:100270008887888599859B838A83EA81FB8184911D
:10028000898389818F838F81882339F729960FB6D7
:10029000F894DEBF0FBECDBFDF91CF9108951F92BE
:1002A0000F920FB60F9211242F933F934F935F93AA
:1002B0006F937F938F939F93AF93BF93EF93FF932E
:1002C000CF93DF93CDB7DEB72197DEBFCDBFECE292
:1002D000F0E080818983EBE2F0E08081882F90E07C
:1002E00080719070009741F589818D3071F4809113
:1002F0009B00882F90E0FC01EC58FF4F1082109279
:100300009B0084E790E07ED11CC080919B008F5FB2
:1003100080939B0080919B00803218F08EE390E0E8
:1003200085DF80919B00882F90E001972981FC0157
:10033000EC58FF4F208305C010929B0086E290E0AE
:1003400075DF2196F894DEBFCDBFDF91CF91FF918D
:10035000EF91BF91AF919F918F917F916F915F913D
:100360004F913F912F910F900FBE0F901F901895B6
:10037000CF93DF93CDB7DEB7E7E3F0E08FE0808384
:10038000AEE4B0E0EEE4F0E0808183608C93AEE414
:10039000B0E0EEE4F0E0808188608C9310929500EC
:1003A00010929400109297001092960088EC90E0C2
:1003B000909399008093980081E080939A00EAE4FA
:1003C000F0E0809198009091990091838083A8E358
:1003D000B0E080919A00882F90E0FC01E05AFF4F36
:1003E000808180958C93DF91CF910895CF93DF9397
:1003F000CDB7DEB722970FB6F894DEBF0FBECDBFE4
:100400009A83898389819A8190939700809396003B
:10041000A8E5B0E0E8E5F0E0808180618C93E9E553
:10042000F0E080E1808322960FB6F894DEBF0FBE25
:10043000CDBFDF91CF910895CF93DF93CDB7DEB7D6
:1004400022970FB6F894DEBF0FBECDBF9A83898383
:10045000209196003091970089819A81820F931F95
:100460009093970080939600A8E5B0E0E8E5F0E06F
:10047000808180618C93E9E5F0E080E180832296C1
:100480000FB6F894DEBF0FBECDBFDF91CF910895B8
:10049000CF93DF93CDB7DEB722970FB6F894DEBFC8
:1004A0000FBECDBF9A838983ECE4F0E01182108205
:1004B00089819A81909399008093980022960FB633
:1004C000F894DEBF0FBECDBFDF91CF910895789431
:1004D0001F920F920FB60F9211242F933F938F9379
:1004E0009F93AF93BF93EF93FF93CF93DF93CDB7DA
:1004F000DEB7EAE4F0E08091980090919900918352
:100500008083209194003091950080919600909185
:1005100097002817390721F4E9E5F0E0108242C07E
:1005200020919600309197008091940090919500D1
:1005300082179307B4F480919A008F5F80939A009A
:1005400080919A00853018F081E080939A00809124
:10055000940090919500019690939500809394005B
:1005600015C080919A00815080939A0080919A00E2
:10057000882319F484E080939A00809194009091EC
:10058000950001979093950080939400A8E3B0E0C4
:1005900080919A00882F90E0FC01E05AFF4F808103
:1005A00080958C93DF91CF91FF91EF91BF91AF91A7
:1005B0009F918F913F912F910F900FBE0F901F90A1
:1005C0001895CF93DF93CDB7DEB7B3DD8CE890E01D
:1005D0002DDE8AE590E02ADECBDE84E590E026DEA3
:1005E0007894A5E5B0E0E5E5F0E0808180688C9343
:1005F0008895A5E5B0E0E5E5F0E090818FE78923F7
:100600008C93EFCF0F931F93CF93DF93CDB7DEB7CC
:1006100067970FB6F894DEBF0FBECDBF9D8B8C8B56
:1006200085E690E09F838E8319828E819F819E0153
:100630002C5E3F4FBC01C901D2D09D838C831FC06B
:100640008E819F819E012C5E3F4FBC01C901C7D0A6
:100650009B838A838981082F10E08A819B8199D0AE
:10066000AC019801220F331FCE010196820F931F18
:10067000FC0137965183408389818F5F89838C8900
:100680009D89009719F089818630D0F287E690E045
:100690002C813D81BC01C90199D0009759F488850E
:1006A0009985A4DE88EE90E0C1DD81E090E09F8B2B
:1006B0008E8B2DC08BE690E02C813D81BC01C90161
:1006C00085D0009759F488859985B6DE87ED90E04E
:1006D000ADDD81E090E09F8B8E8B19C08FE690E0BE
:1006E0002C813D81BC01C90171D0009759F48885E6
:1006F0009985CEDE87EC90E099DD81E090E09F8BDC
:100700008E8B05C084EB90E091DD1F8A1E8A8E8956
:100710009F8967960FB6F894DEBF0FBECDBFDF91FD
:10072000CF911F910F910895CF93DF93CDB7DEB78F
:1007300026970FB6F894DEBF0FBECDBF9E838D8384
:100740002D813E81C901880F991F820F931F9E83BF
:100750008D831C821B820DC01A82198289819A8125
:100760000197F1F79A8389838B819C8101969C8301
:100770008B832B813C818D819E818217930760F74B
:1007800026960FB6F894DEBF0FBECDBFDF91CF9196
:100790000895FC0188279927E89421912032E9F3F4
:1007A000293010F02E30C8F32B3239F02D3231F4CD
:1007B000689403C02CD0820F911D219120532A30C0
:1007C000C8F31EF4909581959F4F0895FB01DC01BD
:1007D0008D91019080190110D9F3990B0895FC01B6
:1007E000A081B181AD01109681F03D91FB01019096
:1007F00003160110E1F7C9F7002011F4D00102C07F
:100800001E921196FC01A083B183CA0108957AE07B
:10081000979F902D879F802D910D11240895FFCFD4
:100820000003060C0920006162730072656C0070A1
:0408300065720000ED
:00000001FF
