:1000000012C02CC02BC02AC029C028C027C026C0BF
:1000100026C024C023C022C021C020C01FC01EC0D3
:100020001DC01CC01BC011241FBECFE5D4E0DEBF25
:10003000CDBF10E0A0E6B0E0ECE9F1E002C0059031
:100040000D92A036B107D9F710E0A0E6B0E001C0EC
:100050001D92A336B107E1F78AD09FC0D1CF1F927E
:100060000F920FB60F9211242F933F938F939F936C
:10007000EF93FF93CF93DF93CDB7DEB72297DEBF29
:10008000CDBF80916000282F30E03A832983898199
:100090009A81009731F029813A8121303105C1F0F0
:1000A0002AC08091610090916200019634E0803115
:1000B000930750F4809161009091620001969093B3
:1000C00062008093610017C081E08093600013C0DC
:1000D00080916100909162008130910551F0809192
:1000E000610090916200019790936200809361009B
:1000F00002C010926000EAE4F0E0209161003091CB
:10010000620080E094E0821B930B918380832296AF
:10011000F894DEBFCDBFDF91CF91FF91EF919F911A
:100120008F913F912F910F900FBE0F901F901895B8
:10013000CF93DF93CDB7DEB7EFE4F0E083E88083C1
:10014000AEE4B0E0EEE4F0E0808181608C93EAE41C
:10015000F0E011821082E7E3F0E082E08083E9E5DD
:10016000F0E084E080837894DF91CF910895CF937D
:10017000DF93CDB7DEB7DCDFA5E5B0E0E5E5F0E085
:10018000808180688C938895A5E5B0E0E5E5F0E096
:0C01900090818FE789238C93EFCFFFCF85
:00000001FF
