:100000000C942A000C943F000C943F000C943F0089
:100010000C943F000C943F000C943F000C943F0064
:100020000C943F000C943F000C943F000C943F0054
:100030000C943F000C943F000C943F000C943F0044
:100040000C943F000C943F000C943F000C943F0034
:100050000C943F0011241FBECFE5D8E0DEBFCDBF1A
:1000600010E0A0E6B0E0EEE2F3E002C005900D92F1
:10007000A436B107D9F70E9441000C9495010C9465
:100080000000DF93CF93CDB7DEB728970FB6F89473
:10009000DEBF0FBECDBF8FEF87BB51E020E931E05F
:1000A00042E058BB86EF99E0F9013197F1F70197EB
:1000B000D9F748BB86EF99E0F9013197F1F701973D
:1000C000D9F7EFCFEF92FF920F931F937C018B0133
:1000D0000E94F2000E191F090F5F1F4FB8010E9406
:1000E0007A009C012E0D3F1DC9011F910F91FF90B9
:1000F000EF90089597FB092E07260AD077FD04D0CC
:100100000CD006D000201AF4709561957F4F0895A9
:10011000F6F7909581959F4F0895AA1BBB1B51E15F
:1001200007C0AA1FBB1FA617B70710F0A61BB70B67
:10013000881F991F5A95A9F780959095BC01CD010C
:100140000895A0E0B0E0E7EAF0E00C944401EC018F
:10015000A880B980CA80DB80A114B104C104D10495
:1001600041F484E2A82E89EDB82E8BE5C82E87E0F5
:10017000D82EC601B5012DE133EF41E050E00E94D9
:10018000210127EA31E440E050E00E9402017B01B6
:100190008C01C601B5012DE133EF41E050E00E9432
:1001A0002101CA01B9012CEE34EF4FEF5FEF0E943D
:1001B00002016E0D7F1D801F911F97FF04C06150CB
:1001C000704080409048688379838A839B839B0139
:1001D0003F77C901CDB7DEB7EAE00C9460010E9419
:1001E000A100089580E690E00E94A1000895A0E09B
:1001F000B0E08093600090936100A0936200B093A0
:1002000063000895629FD001739FF001829FE00D0B
:10021000F11D649FE00DF11D929FF00D839FF00D85
:10022000749FF00D659FF00D9927729FB00DE11D31
:10023000F91F639FB00DE11DF91FBD01CF0111240E
:10024000089597FB092E05260ED057FD04D04BD0FC
:100250000AD0001C38F450954095309521953F4FB9
:100260004F4F5F4F0895F6F7909580957095619583
:100270007F4F8F4F9F4F08952F923F924F925F92E3
:100280006F927F928F929F92AF92BF92CF92DF92A6
:10029000EF92FF920F931F93CF93DF93CDB7DEB70B
:1002A000CA1BDB0B0FB6F894DEBF0FBECDBF09949F
:1002B0002A88398848885F846E847D848C849B84F6
:1002C000AA84B984C884DF80EE80FD800C811B8104
:1002D000AA81B981CE0FD11D0FB6F894DEBF0FBE33
:1002E000CDBFED010895A1E21A2EAA1BBB1BFD0193
:1002F0000DC0AA1FBB1FEE1FFF1FA217B307E40705
:10030000F50720F0A21BB30BE40BF50B661F771F5C
:10031000881F991F1A9469F760957095809590953C
:0E0320009B01AC01BD01CF010895F894FFCF01
:04032E0001000000CA
:00000001FF
