:100000002DC047C046C0C7C144C043C042C041C064
:1000100040C03FC03EC0FFC23CC03BC03AC039C038
:1000200038C037C036C068656C6C6F0A00467261B4
:100030006D696E67204572726F72204465746563E6
:100040007465640A0052656365696576652042756A
:10005000666665722046756C6C0A000011241FBE2E
:10006000CFE5D4E0DEBFCDBF11E0A0E6B0E0EEEB1F
:10007000FAE102C005900D92AE3AB107D9F711E04E
:10008000AEEAB1E001C01D92A73DB107E1F7AFD2E2
:1000900015CDB6CF8DE783BD89B7806889BF85B59B
:1000A0008C6085BD08952F923F924F925F926F9220
:1000B0007F928F929F92AF92BF92CF92DF92EF92F8
:1000C000FF920F931F932090AE013090AF014090AC
:1000D000B0015090B1016090B2017090B301809076
:1000E000B4019090B50198EEA92E83E0B82ECC24EF
:1000F000DD24EE24FF2400E010E0222D332D442DDA
:10010000552D662D772D882D992D45D3A22EB32EF2
:10011000C42ED52EC601B5011F910F91FF90EF900F
:10012000DF90CF90BF90AF909F908F907F906F9017
:100130005F904F903F902F9008958F929F92AF9233
:10014000BF92CF92DF92EF92FF920F931F93CF93C4
:10015000DF93CDB7DEB760970FB6F894DEBF0FBE62
:10016000CDBF7B018C0120E030E040E050E06983AE
:10017000FA820B831C832D833E834F835887A02EE6
:10018000CC24DD24EE2402E0262F3F2D4A2D512FD2
:100190006C2D7D2D8E2D90E085D229873A874B8757
:1001A0005C876D877E878F87988B05E07BD2822E58
:1001B000932EA42EB52EC62ED72EE82EF92E022F62
:1001C0008985081B81E0801608F080E0192D9A854A
:1001D000191BA1E0911608F0A0E0E12FE81B8E2F7B
:1001E00091E01E1708F090E0A92B182F2A2DFB850F
:1001F0002F1BB1E0A21608F0B0E0822F8A1B91E01D
:10020000281708F090E0B92B282F3B2D8C85381B40
:10021000A1E0B31608F0A0E0832F8B1B91E0381704
:1002200008F090E0A92B382F4C2D9D85491BB1E09B
:10023000C41608F0B0E0842F8A1B91E0481708F03C
:1002400090E0B92B482F5D2DEE855E1BA1E0D51601
:1002500008F0A0E0852F8B1B91E0581708F090E084
:10026000A92B582F6E2DFF856F1B91E0E61608F025
:1002700090E0862F8A1BE1E0681708F0E0E09E2BF3
:10028000682F7F2D8889781B791B8980800E81E0FB
:10029000801608F080E09A80910EA1E0911608F097
:1002A000A0E0890D91E0891508F090E0A92B982E27
:1002B000AB80A20EB1E0A21608F0B0E08A2F8A0D42
:1002C00091E08A1508F090E0B92BA82EBC80B30EFF
:1002D000A1E0B31608F0A0E08B2F8B0D91E08B15F9
:1002E00008F090E0A92BB82ECD80C40EB1E0C41662
:1002F00008F0B0E08A2F8C0D91E08C1508F090E0AA
:10030000B92BC82EDE80D50EA1E0D51608F0A0E0EE
:100310008B2F8D0D91E08D1508F090E0A92BD82E34
:10032000EF80E60EF1E0E61608F0F0E08A2F8E0D81
:1003300091E08E1508F090E09F2BF884F70E9F0D4A
:1003400003E0282D392D4A2D5B2D6C2D7D2DAAD152
:100350002093AE013093AF014093B0015093B101AF
:100360006093B2017093B3018093B4019093B5018F
:1003700060960FB6F894DEBF0FBECDBFDF91CF9170
:100380001F910F91FF90EF90DF90CF90BF90AF90B3
:100390009F908F9008951F920F920FB60F92112485
:1003A0008F929F92AF92BF92CF92DF92EF92FF9285
:1003B0000F931F932F933F934F935F936F937F936D
:1003C0008F939F93AF93BF93EF93FF93CF93DF935D
:1003D000CDB7DEB72897DEBFCDBF8090AE0190903D
:1003E000AF01A090B001B090B101C090B201D09027
:1003F000B301E090B401F090B50188E089831A82DE
:100400001B821C821D821E821F82188608E0080D36
:1004100081E0081508F080E01A81190DA1E0191596
:1004200008F0A0E0810F91E0811708F090E0A92B7F
:10043000182F2B812A0DB1E02A1508F0B0E08A2F81
:10044000820F91E0821708F090E0B92B282F3C81B1
:100450003B0DA1E03B1508F0A0E08B2F830F91E04E
:10046000831708F090E0A92B382F4D814C0DB1E097
:100470004C1508F0B0E08A2F840F91E0841708F043
:1004800090E0B92B482F5E815D0DA1E05D1508F06D
:10049000A0E08B2F850F91E0851708F090E0A92B45
:1004A000582F6F816E0DF1E06E1508F0F0E09A2F75
:1004B000960F81E0961708F080E08F2B78857F0DEE
:1004C000870F0093AE011093AF012093B0013093DA
:1004D000B1014093B2015093B3019093B401809362
:1004E000B5012896F894DEBFCDBFDF91CF91FF9183
:1004F000EF91BF91AF919F918F917F916F915F919C
:100500004F913F912F911F910F91FF90EF90DF90AE
:10051000CF90BF90AF909F908F900F900FBE0F9095
:100520001F90189510BC8CE089B9599A8AB18869D6
:100530008AB90895FC010AC09A3021F45D9BFECF70
:100540008DE08CB95D9BFECF9CB931969491992337
:1005500099F7089581E090E008950F931F93CF934A
:10056000DF93CDB7DEB7C054D0400FB6F894DEBFEE
:100570000FBECDBF20916E0029832FE3FE0132967E
:1005800011922A95E9F79F938F937F936F9380E65B
:1005900090E09F938F938E010F5F1F4F1F930F93D8
:1005A00068D7F8018DB79EB708960FB6F8949EBF2E
:1005B0000FBE8DBF0AC09A3021F45D9BFECF8DE047
:1005C0008CB95D9BFECF31969CB99081992399F7A8
:1005D00086E290E0AFDFC05CDF4F0FB6F894DEBF7D
:1005E0000FBECDBFDF91CF911F910F91089552DDC6
:1005F00060E871E689E899E4A0DD789493DF53DD43
:10060000ACDF2FEF3FEF89E190E00197F1F7215048
:100610003040C9F7F4CF1F920F920FB60F921124FA
:100620001F932F933F934F935F936F937F938F937A
:100630009F93AF93BF93EF93FF931CB15C991BC043
:100640008091D6011D3041F4E82FF0E0EA54FE4FCE
:1006500010821092D60114C08F5F8093D601803231
:1006600018F085E490E066DFE091D601F0E0EB540D
:10067000FE4F108305C01092D6018DE290E05ADF44
:10068000FF91EF91BF91AF919F918F917F916F916A
:100690005F914F913F912F911F910F900FBE0F903F
:1006A0001F901895A0E1B0E0E7E5F3E0D0C9222E55
:1006B000332E442E552E662E772E882E992E00230B
:1006C00009F45EC088E0FE01319611928A95E9F73F
:1006D00029833A834B835C836D837E838F829887E3
:1006E00080E2801BE82FFF27E7FDF09549815A81C2
:1006F0006B817C81181684F019861A861B861C86ED
:10070000882799278E1B9F0B04C0440F551F661F17
:10071000771F8A95D2F728C0202F332727FD3095E1
:10072000DB01CA01022E04C0880F991FAA1FBB1F3C
:100730000A94D2F789879A87AB87BC8704C07695DD
:10074000679557954795EA95D2F78D819E81AF8140
:10075000B88504C0880F991FAA1FBB1F2A95D2F71E
:10076000482B592B6A2B7B2B4D875E876F87788BA5
:1007700029843A844B845C846D847E848F84988839
:10078000222D332D442D552D662D772D882D992D15
:10079000E2E1609678C9ACE6B0E0E0EDF3E057C97D
:1007A000222E332E442E552E662E772E882E992EED
:1007B0006E2DA8E0FE013196EA2E1192EA94E9F737
:1007C00029823A824B825C826D827E828F829886F9
:1007D000FE0139961192AA95E9F7A986BA86CB86C9
:1007E000DC866D87FE860F87188BA984BA84CB843C
:1007F000DC846D847E848F84988809811A812B81A2
:100800003C8109AB1AAB2BAB3CAB2D803E804F80BB
:100810005884611471048104910409F0A5C32A1459
:100820003B044C045D0408F05BC110E0A11610E02D
:10083000B10611E0C10610E0D10688F42FEFA21630
:10084000B104C104D10409F028F420E030E040E014
:1008500050E017C028E030E040E050E012C030E047
:10086000A31630E0B30630E0C30631E0D30628F427
:1008700020E130E040E050E004C028E130E040E01A
:1008800050E080E290E0A0E0B0E0821B930BA40B6C
:10089000B50B3501460104C096948794779467940C
:1008A0002A95D2F7A401930122553F4FF9012081E7
:1008B000AC01BD01421B5109610971094115510586
:1008C00061057105B9F1CA01042E04C0AA0CBB1C54
:1008D000CC1CDD1C0A94D2F720E230E0241B350B3F
:1008E00069A87AA88BA89CA804C09694879477944A
:1008F00067942A95D2F782017101082E04C0EE0C8C
:10090000FF1C001F111F0A94D2F7130124012E2887
:100910003F28402A512AE9A8FAA80BA91CA904C01B
:10092000EE0CFF1C001F111F8A95D2F7E9AAFAAA44
:100930000BAB1CAB86012227332721960CAF1DAFD2
:100940002EAF3FAF2197A6019501407050702596BC
:100950002CAF3DAF4EAF5FAF2597C201B1012196DD
:100960002CAD3DAD4EAD5FAD21974FD829962CAF44
:100970003DAF4EAF5FAF2997CA01B90125962CADA7
:100980003DAD4EAD5FAD259721D83B014C01C20175
:10099000B10121962CAD3DAD4EAD5FAD219735D85F
:1009A000CB0177276627E9A8FAA80BA91CA998010B
:1009B000442755277B018C01E22AF32A042B152BAF
:1009C000E614F7040805190560F529962CAD3DAD30
:1009D0004EAD5FAD299721503040404050402996A0
:1009E0002CAF3DAF4EAF5FAF2997EA0CFB1C0C1D3F
:1009F0001D1DEA14FB040C051D0598F0E614F70410
:100A00000805190570F421503040404050402996A7
:100A10002CAF3DAF4EAF5FAF2997EA0CFB1C0C1D0E
:100A20001D1DE618F70808091909C801B701219624
:100A30002CAD3DAD4EAD5FAD2197E7D739014A01F1
:100A4000CA01B90125962CAD3DAD4EAD5FAD2597E0
:100A5000BDD71B012C01C801B70121962CAD3DADBE
:100A60004EAD5FAD2197D1D7CB017727662729A956
:100A70003AA94BA95CA940705070262B372B482B04
:100A8000592B2215330544055505C0F40894610817
:100A90007108810891082A0D3B1D4C1D5D1D2A150A
:100AA0003B054C055D0550F0221533054405550501
:100AB00028F4089461087108810891082996ECAC23
:100AC000FDAC0EAD1FAD2997D70199278827682A5D
:100AD000792A8A2A9B2A6DAA7EAA8FAA98AE9BC4DD
:100AE000A114B104C104D10459F461E070E080E0C4
:100AF00090E020E030E040E050E087D759016A0103
:100B000000E0A01600E0B00601E0C00600E0D0065C
:100B100088F41FEFA116B104C104D10409F028F430
:100B200020E030E040E050E017C028E030E040E056
:100B300050E012C020E0A21620E0B20620E0C2067B
:100B400021E0D20628F420E130E040E050E004C08B
:100B500028E130E040E050E0F0E2EF2EF12C012DF2
:100B6000112DD801C701821B930BA40BB50B3501C6
:100B7000460104C096948794779467942A95D2F797
:100B8000A401930122553F4FF9012081821B910955
:100B9000A109B1090097A105B10561F482017101B4
:100BA000EA18FB080C091D09E1E06E2E712C812C5E
:100BB000912C14C198A38F8F0F8C04C0AA0CBB1C5E
:100BC000CC1CDD1C0A94D2F7E81AF90A0A0B1B0B9D
:100BD000D801C70182017101082E04C0169507953E
:100BE000F794E7940A94D2F729A93AA94BA95CA9EA
:100BF00004C056954795379527958A95D2F7D20127
:100C0000C1010F8C04C0880F991FAA1FBB1F0A9433
:100C1000D2F7282B392B4A2B5B2B2DA73EA74FA7AA
:100C200058AB9601442755272D962CAF3DAF4EAFBC
:100C30005FAF2D976FEF262E6FEF362E412C512C84
:100C40002A203B204C205D20C801B701DED66196EA
:100C50002CAF3DAF4EAF5FAF6197CA01B901A201A2
:100C60009101B4D63B014C01C801B7012D962CADC2
:100C70003DAD4EAD5FAD2D97C8D6CB01772766272A
:100C8000EDA4FEA40FA518A99801442755277901C2
:100C90008A01E62AF72A082B192BE614F70408051F
:100CA000190560F561962CAD3DAD4EAD5FAD619718
:100CB000215030404040504061962CAF3DAF4EAF88
:100CC0005FAF6197EA0CFB1C0C1D1D1DEA14FB04B1
:100CD0000C051D0598F0E614F7040805190570F4D5
:100CE000215030404040504061962CAF3DAF4EAF58
:100CF0005FAF6197EA0CFB1C0C1D1D1DE618F70881
:100D000008091909C801B7012D962CAD3DAD4EADAE
:100D10005FAD2D977AD639014A01CA01B901A20106
:100D2000910154D61B012C01C801B7012D962CADA1
:100D30003DAD4EAD5FAD2D9768D6CB0177276627C9
:100D40002DA53EA54FA558A9407050707B018C0180
:100D5000E22AF32A042B152BE214F30404051505EB
:100D6000E0F408946108710881089108EA0CFB1C02
:100D70000C1D1D1DEA14FB040C051D0570F0E2148A
:100D8000F3040405150548F4089461087108810806
:100D90009108EA0CFB1C0C1D1D1D89A99AA9ABA981
:100DA000BCA90F8C04C0880F991FAA1FBB1F0A94EF
:100DB000D2F789AB9AABABABBCABE218F308040932
:100DC000150961962CAD3DAD4EAD5FAD6197D90172
:100DD00099278827682A792A8A2A9B2A69AE7AAEB7
:100DE0008BAE9CAEC601AA27BB2765968CAF9DAF84
:100DF000AEAFBFAF6597A601950140705070699680
:100E00002CAF3DAF4EAF5FAF6997C801B701659694
:100E10002CAD3DAD4EAD5FAD6597F7D519012A01FB
:100E2000CA01B90169962CAD3DAD4EAD5FAD699774
:100E3000CDD53B014C01C801B70165962CAD3DAD48
:100E40004EAD5FAD6597E1D5CB0177276627E9A861
:100E5000FAA80BA91CA99801442755277B018C01EE
:100E6000E22AF32A042B152BE614F70408051905CA
:100E7000E0F408942108310841085108EA0CFB1CF1
:100E80000C1D1D1DEA14FB040C051D0570F0E61475
:100E9000F7040805190548F40894210831084108A9
:100EA0005108EA0CFB1C0C1D1D1DE618F70808096B
:100EB0001909C801B70165962CAD3DAD4EAD5FADCA
:100EC0006597A3D539014A01CA01B90169962CADCC
:100ED0003DAD4EAD5FAD699779D5698F7A8F8B8FB8
:100EE0009C8FC801B70165962CAD3DAD4EAD5FAD91
:100EF00065978BD5CB017727662729A93AA94BA9F6
:100F00005CA940705070262B372B482B592B898DAC
:100F10009A8DAB8DBC8D281739074A075B07C0F443
:100F2000089461087108810891082A0D3B1D4C1D29
:100F30005D1D2A153B054C055D0550F02817390746
:100F40004A075B0728F40894610871088108910832
:100F5000D10199278827682A792A8A2A9B2A6DAA8B
:100F60007EAA8FAA98AE5BC226143704480459049F
:100F700008F444C290E0691690E0790691E0890691
:100F800090E0990688F4AFEF6A1671048104910429
:100F900009F028F420E030E040E050E017C028E0FD
:100FA00030E040E050E012C0B0E06B16B0E07B06ED
:100FB000B0E08B06B1E09B0628F420E130E040E091
:100FC00050E004C028E130E040E050E0E0E2EE2EE6
:100FD000F12C012D112DD801C701821B930BA40BFD
:100FE000B50BAD968CAF9DAFAEAFBFAFAD97D40193
:100FF000C30104C0B695A795979587952A95D2F712
:101000009C01AD0122553F4FD9012C91AD968CAD7D
:101010009DADAEADBFADAD97821B9109A109B109E0
:101020000097A105B10589F4621473048404950442
:1010300008F4E9C169A87AA88BA89CA86A147B0463
:101040008C049D0408F0DFC1D9C19E8F8D8FE81AF2
:10105000F90A0A0B1B0BA801970186017501022EE4
:1010600004C016950795F794E7940A94D2F7D40133
:10107000C3010D8C04C0880F991FAA1FBB1F0A94BF
:10108000D2F737014801682A792A8A2A9B2A0D8CCF
:1010900004C0AA0CBB1CCC1CDD1C0A94D2F7A9A26C
:1010A000BAA2CBA2DCA282017101022E04C0169565
:1010B0000795F794E7940A94D2F789A99AA9ABA95E
:1010C000BCA904C0B695A795979587952A95D2F7A0
:1010D0009C01AD01D201C1010D8C04C0880F991F84
:1010E000AA1FBB1F0A94D2F7282B392B4A2B5B2B44
:1010F00029A73AA74BA75CA79401442755276D96CB
:101100002CAF3DAF4EAF5FAF6D976FEF262E6FEFF9
:10111000362E412C512C2620372048205920C8013A
:10112000B70173D4A1962CAF3DAF4EAF5FAFA1977F
:10113000CA01B901A201910149D45B016C01C80146
:10114000B7016D962CAD3DAD4EAD5FAD6D975DD4E5
:10115000CB0177276627E9A4FAA40BA51CA5980163
:10116000442755277B018C01E22AF32A042B152BF7
:10117000EA14FB040C051D0560F5A1962CAD3DADF0
:101180004EAD5FADA1972150304040405040A196F8
:101190002CAF3DAF4EAF5FAFA197E60CF71C081D1B
:1011A000191DE614F7040805190598F0EA14FB0464
:1011B0000C051D0570F42150304040405040A19670
:1011C0002CAF3DAF4EAF5FAFA197E60CF71C081DEB
:1011D000191DEA18FB080C091D09C801B7016D9615
:1011E0002CAD3DAD4EAD5FAD6D970FD459016A0189
:1011F000CA01B901A2019101E9D31B012C01C80167
:10120000B7016D962CAD3DAD4EAD5FAD6D97FDD385
:10121000CB017727662729A53AA54BA55CA5407089
:1012200050707B018C01E22AF32A042B152BE21467
:10123000F30404051505E0F40894A108B108C108F9
:10124000D108E60CF71C081D191DE614F704080563
:10125000190570F0E214F3040405150548F4089428
:10126000A108B108C108D108E60CF71C081D191D1A
:10127000E218F30804091509EDA2FEA20FA318A7AE
:10128000A1966CAC7DAC8EAC9FACA197D301992795
:101290008827A82AB92ACA2ADB2AADAABEAACFAAB9
:1012A000D8AE860175012FEF3FEF40E050E0E2221B
:1012B000F32204231523C601AA27BB27A9968CAFC6
:1012C0009DAFAEAFBFAFA997A9A0BAA0CBA0DCA03D
:1012D000A222B322C422D52269A07AA08BA09CA00E
:1012E000140144245524C801B701A60195016ED309
:1012F000A5966CAF7DAF8EAF9FAFA597C801B70124
:10130000A201910163D33B014C01A9966CAD7DAD67
:101310008EAD9FADA997A601950158D37B018C0195
:10132000A9966CAD7DAD8EAD9FADA997A20191013F
:101330004DD35B016C01A8019701260D371D481D97
:10134000591DA5966CAC7DAC8EAC9FACA597C40125
:10135000AA27BB27280F391F4A1F5B1F2E153F05E1
:101360004007510748F4E12CF12C61E0062F112DC4
:10137000AE0CBF1CC01ED11ECA01AA27BB27A80ED7
:10138000B91ECA1EDB1E6DA07EA08FA098A46A1491
:101390007B048C049D0428F1A614B704C804D90466
:1013A000D1F5D90199278827A5962CAD3DAD4EAD35
:1013B0005FADA59740705070820F931FA41FB51F9B
:1013C00029A93AA94BA95CA90D8C04C0220F331F8F
:1013D000441F551F0A94D2F7281739074A075B079D
:1013E000D0F40DA91EA92FA938AD015010402040FE
:1013F00030400DAB1EAB2FAB38AF0DC01DAA1EAADF
:101400001FAA18AE08C021E030E040E050E02DAB4C
:101410003EAB4FAB58AF19AE1AAE1BAE1CAE88E058
:10142000FE01719611928A95E9F78DA99EA9AFA93F
:10143000B8AD898B9A8BAB8BBC8B69AC7AAC8BAC1F
:101440009CAC6D8A7E8A8F8A988E29883A884B88D0
:101450005C886D887E888F88988C222D332D442D52
:10146000552D662D772D882D992DE2E1C459DF4F3A
:101470000AC3A0E1B0E0EEE3FAE0F7C20F89188DED
:1014800086E08E831C830B838FEF9FE798878F8383
:10149000AE01455E5F4F5A834983698D7A8DCE01D7
:1014A000039609D029853A85020F131FF80110828F
:1014B000E4E06096F6C22F923F925F926F927F9225
:1014C0008F929F92AF92BF92CF92DF92EF92FF9254
:1014D0000F931F93CF93DF93CDB7DEB72B970FB644
:1014E000F894DEBF0FBECDBF3C014B016A01FC0189
:1014F00017821682838181FD03C08FEF9FEFAEC1FB
:101500001E010894211C311CF3013381F40133FDC9
:10151000859133FF81914F01882309F49CC1853265
:1015200039F433FD859133FF81914F01853221F4E8
:10153000B30190E0C1D1E8CF982FAA2410E0552440
:101540001032B0F49B3269F09C3228F4903251F0A2
:10155000933271F40BC09D3239F0903349F411602D
:101560002AC01260146027C0186025C0106123C013
:1015700017FD2AC0292F20532A3088F416FF07C0F0
:101580008AE0A89EC0011124A22EA80E14C08AE0F1
:10159000589EC0011124522E580E10620CC09E326B
:1015A00021F416FD58C1106406C09C3611F4106871
:1015B00002C0983649F4F40133FD959133FF9191BF
:1015C0004F01992309F0BCCF892F8554833018F03F
:1015D0008052833038F424E030E0C20ED31E8FE313
:1015E00089830FC0933631F0933781F0933509F03A
:1015F00052C01FC0F6018081898322E030E0C20E14
:10160000D31E710181E0A82EB12C11C0F601E0803B
:10161000F18016FD03C06FEF7FEF02C06A2D70E00E
:1016200022E030E0C20ED31EC7013BD15C011F7720
:1016300012C0F601E080F18016FD03C06FEF7FEF6E
:1016400002C06A2D70E022E030E0C20ED31EC70156
:101650001DD15C01106813FF06C019C0B30180E200
:1016600090E02AD15A94852D90E0A816B906B0F3DF
:101670000EC0F70117FD859117FF81917F01B3011E
:1016800090E01AD151105A940894A108B108A114FD
:10169000B10479F7DDC0943611F0993661F517FF82
:1016A0000AC0F601608171818281938124E030E07B
:1016B000C20ED31E0DC0F601808191819C01B9013B
:1016C000882777FD8095982F42E050E0C40ED51E04
:1016D000012F0F7697FF08C09095809570956195C2
:1016E0007F4F8F4F9F4F00682AE030E0A10110D15B
:1016F000B82EB2183CC0953721F41F7E2AE030E0A6
:101700001CC0197F9F3661F0903720F4983509F09E
:10171000A2C00FC0903739F0983709F09CC004C0C0
:1017200028E030E00AC0106114FD146020E130E0D0
:1017300004C014FD166020E132E017FF08C0F60176
:10174000608171818281938144E050E008C0F6019C
:1017500080819181BC0180E090E042E050E0C40EC5
:10176000D51EA101D5D0B82EB218012F0F7706FFD4
:1017700009C00E7FBA1430F404FF06C002FD04C095
:101780000F7E02C01B2D01C01A2D04FF0CC0FE01EC
:10179000EB0DF11D8081803311F4097E08C01F5FBD
:1017A00002FF05C003C0802F867809F01F5FE02E7E
:1017B00003FD13C000FF0EC0151510F0AB2C0AC0BE
:1017C000AB2CA50CA11A152D05C0B30180E290E049
:1017D00073D01F5F1515C8F304C0151510F4511A06
:1017E00001C05524E4FE0FC0B30180E390E064D053
:1017F000E2FE1CC0E1FE03C088E590E002C088E77D
:1018000090E0B3010CC08E2D867881F0E1FE02C01D
:101810008BE201C080E207FD8DE2B30190E04CD085
:1018200005C0B30180E390E047D0AA94BA14C8F38E
:10183000BA94F101EB0DF11D8081B30190E03CD031
:10184000BB2031F0F5CFB30180E290E035D05A945F
:101850005520C9F759CEF301868197812B960FB693
:10186000F894DEBF0FBECDBFDF91CF911F910F91D6
:10187000FF90EF90DF90CF90BF90AF909F908F90B0
:101880007F906F905F903F902F900895FC0105909E
:10189000615070400110D8F7809590958E0F9F1F72
:1018A0000895FC016150704001900110D8F78095B7
:1018B00090958E0F9F1F08950F931F93CF93DF93E3
:1018C0008C01EB018B8181FF1BC082FF0DC02E813B
:1018D0003F818C819D812817390764F4E881F98163
:1018E0000193F983E88306C0E885F985802F09957F
:1018F000892B31F48E819F8101969F838E8302C054
:101900000FEF1FEFC801DF91CF911F910F91089545
:10191000FA01AA27283051F1203181F1E8946F9320
:101920006E7F6E5F7F4F8F4F9F4FAF4FB1E03ED0C6
:10193000B4E03CD0670F781F891F9A1FA11D680F64
:10194000791F8A1F911DA11D6A0F711D811D911D97
:10195000A11D20D009F468943F912AE0269F11240C
:101960003019305D3193DEF6CF010895462F477070
:10197000405D4193B3E00FD0C9F7F6CF462F4F70CB
:10198000405D4A3318F0495D31FD4052419302D029
:10199000A9F7EACFB4E0A6959795879577956795CF
:1019A000BA95C9F700976105710508959B01AC01CF
:1019B0000A2E06945795479537952795BA95C9F7F6
:1019C000620F731F841F951FA01D0895629FD00191
:1019D000739FF001829FE00DF11D649FE00DF11DEA
:1019E000929FF00D839FF00D749FF00D659FF00D99
:1019F0009927729FB00DE11DF91F639FB00DE11D86
:101A0000F91FBD01CF0111240895A1E21A2EAA1BCE
:101A1000BB1BFD010DC0AA1FBB1FEE1FFF1FA2179E
:101A2000B307E407F50720F0A21BB30BE40BF50B9B
:101A3000661F771F881F991F1A9469F76095709524
:101A4000809590959B01AC01BD01CF0108952F9227
:101A50003F924F925F926F927F928F929F92AF923E
:101A6000BF92CF92DF92EF92FF920F931F93CF938B
:101A7000DF93CDB7DEB7CA1BDB0B0FB6F894DEBF22
:101A80000FBECDBF09942A88398848885F846E8448
:101A90007D848C849B84AA84B984C884DF80EE8092
:101AA000FD800C811B81AA81B981CE0FD11D0FB69B
:0E1AB000F894DEBF0FBECDBFED010895FFCF4D
:101ABE0076616C756520697320256C640A000000E0
:101ACE000000000000000000000000000000000008
:101ADE0000000000000000000000000000000000F8
:101AEE0000000000000000000000000000000000E8
:101AFE0000000000000000000000000000000001D7
:101B0E00020203030303040404040404040405058D
:101B1E000505050505050505050505050505060665
:101B2E000606060606060606060606060606060647
:101B3E000606060606060606060606060606070735
:101B4E000707070707070707070707070707070717
:101B5E000707070707070707070707070707070707
:101B6E0007070707070707070707070707070707F7
:101B7E0007070707070707070707070707070808E5
:101B8E0008080808080808080808080808080808C7
:101B9E0008080808080808080808080808080808B7
:101BAE0008080808080808080808080808080808A7
:101BBE000808080808080808080808080808080897
:101BCE000808080808080808080808080808080887
:101BDE000808080808080808080808080808080877
:101BEE000808080808080808080808080808080867
:0E1BFE00080808080808080808080808080869
:00000001FF
