:100000000C942A000C944E000C9434000C94340090
:100010000C9434000C9434000C9434000C94340090
:100020000C9434000C9434000C9434000C94340080
:100030000C9434000C9434000C9434000C94340070
:100040000C9434000C9434000C9434000C94340060
:100050000C94340011241FBECFE5D8E0DEBFCDBF25
:100060000E9436000C9472000C940000DF93CF9332
:10007000CDB7DEB77894E7E3F0E08FEF8083A5E5B6
:10008000B0E0E5E5F0E0808181608C93ABE5B0E025
:10009000EBE5F0E0808180648C93FFCF1F920F929C
:1000A0000FB60F9211248F939F93AF93BF93EF934B
:1000B000FF93DF93CF93CDB7DEB7A8E3B0E0E8E3DB
:1000C000F0E0908181E089278C93CF91DF91FF91BF
:1000D000EF91BF91AF919F918F910F900FBE0F90B5
:0800E0001F901895F894FFCF62
:00000001FF
