:1000000013C02DC02CC02BC02AC029C028C027C0B7
:1000100026C025C024C023C022C021C020C01FC0CC
:100020001EC01DC01CC00A0011241FBECFE5D4E0B5
:10003000DEBFCDBF11E0A0E6B0E0E0EAF2E002C032
:1000400005900D92A036B107D9F711E0A0E6B1E016
:1000500001C01D92A036B107E1F788D020C1D0CFF2
:10006000CF93DF93CDB7DEB721970FB6F894DEBFFD
:100070000FBECDBF8983EBE2F0E08081882F90E056
:10008000807290700097B9F3ECE2F0E08981808390
:1000900021960FB6F894DEBF0FBECDBFDF91CF9192
:1000A0000895CF93DF93CDB7DEB722970FB6F894BC
:1000B000DEBF0FBECDBF9A83898311C0E981FA816B
:1000C00080818A3011F48DE0CBDFE981FA812081D3
:1000D00089819A8101969A838983822FC1DFE98180
:1000E000FA818081882351F722960FB6F894DEBFFB
:1000F0000FBECDBFDF91CF910895CF93DF93CDB7E2
:10010000DEB729970FB6F894DEBF0FBECDBF998733
:100110008887888599859E838D83ED81FE81849172
:100120008C838C818F8316C08F818A3011F48DE08F
:1001300097DF8F8195DF88859985019699878887D4
:10014000888599859B838A83EA81FB818491898351
:1001500089818F838F81882339F729960FB6F89488
:10016000DEBF0FBECDBFDF91CF910895CF93DF9358
:10017000CDB7DEB7C750D1400FB6F894DEBF0FBE83
:10018000CDBFEBE2F0E082E08083EAE2F0E088E9D4
:100190008083E9E2F0E08CE080831A821982CE014C
:1001A0000396CD5FDE4F99838883C350D140A0E68C
:1001B000B0E0CB5FDE4FB983A883C550D140B6E134
:1001C000C95FDE4FB883C750D140CB5FDE4FE881B7
:1001D000F981C550D1400080CB5FDE4F8881998185
:1001E000C550D1400196CB5FDE4F99838883C550BF
:1001F000D140CD5FDE4FA881B981C350D1400C9270
:10020000CD5FDE4FE881F981C350D1403196CD5F9B
:10021000DE4FF983E883C350D140C95FDE4FF881D8
:10022000C750D140F150C95FDE4FF883C750D1406D
:10023000C95FDE4F8881C750D140882331F68AEEEE
:10024000FE017996DF01982F1D929A95E9F7898131
:100250009A8101969A838983CE01039622DF898150
:100260009A812AE030E0B90106D0009781F786E252
:1002700090E043DFECCFAA1BBB1B51E107C0AA1FD4
:10028000BB1FA617B70710F0A61BB70B881F991F37
:100290005A95A9F780959095BC01CD010895FFCF9F
:1002A00074657374696E6720313233206675636BD1
:1002B00020796F750A0000000000000000000000B7
:1002C000000000000000000000000000000000002E
:1002D000000000000000000000000000000000001E
:1002E000000000000000000000000000000000000E
:1002F00000000000000000000000000000000000FE
:1003000000000000000000000000000000000000ED
:1003100000000000000000000000000000000000DD
:1003200000000000000000000000000000000000CD
:1003300000000000000000000000000000000000BD
:1003400000000000000000000000000000000000AD
:10035000000000000000000000000000000000009D
:10036000000000000000000000000000000000008D
:10037000000000000000000000000000000000007D
:10038000000000000000000000000000000000006D
:10039000000000000000000000000000000000005D
:00000001FF
